:020000040800F2
:108000000000022081420108AD8B0008B18B0008FE
:10801000B58B0008B98B0008BD8B0008000000007C
:10802000000000000000000000000000C18B0008FC
:10803000C58B000800000000C98B0008CD42010874
:10804000CD420108CD420108CD420108CD420108D0
:10805000CD420108CD420108CD420108CD420108C0
:10806000CD420108CD420108CD420108CD420108B0
:10807000CD420108CD420108B9A80008CD4201084F
:10808000CD420108CD420108CD420108CD42010890
:10809000CD420108CD420108CD420108CD42010880
:1080A000CD420108CD420108CD420108CD42010870
:1080B000CD420108CD420108CD420108CD42010860
:1080C000CD420108CD420108CD420108CD42010850
:1080D000CD420108CD420108CD420108CD42010840
:1080E000CD420108CD420108CD420108CD42010830
:1080F000CD420108CD420108CD420108CD42010820
:10810000CD420108CD420108CD420108CD4201080F
:10811000CD420108CD420108CD420108CD420108FF
:10812000CD420108CD420108CD420108CD420108EF
:10813000CD420108CD420108CD420108CD420108DF
:10814000CD420108CD420108CD420108CD420108CF
:10815000CD420108CD420108CD420108CD420108BF
:10816000CD420108CD420108CD420108CD420108AF
:10817000CD420108CD420108CD420108CD4201089F
:10818000CD420108CD4201080000000000000000BF
:10819000F8B504468C300D461E46174601F048FDE2
:1081A00004F1920001F00AFE0023C4F89450C4F8D0
:1081B0009870C4F89C6084F8A03095F84100011CC8
:1081C00018BF0121717095F8402084F8A8207262D0
:1081D00094F8A84085F84040F8BD00BF2DE9F0476D
:1081E000D34D2B680446591C82B09230296001F0AF
:1081F00003FE94F89230802B00F08480002B45D150
:10820000D4F8A420002A43D0D4F89870DFEDC97ABE
:108210007E889FEDC97A06EE906AB8EE660A60EE37
:10822000270AF4EEC70AF1EE10FA40F38380B7F89C
:108230000080DFEDC21A01EE108AB8EE412A62EE2C
:10824000272AF4EEE12AF1EE10FA73DD2968B84E20
:10825000881AB0F5965F6DD3D4F8882004F104082D
:1082600008EBC20902F1010A042008F832000AF002
:108270000F070121C9F80430A9F80210C4F888706A
:108280003668C4F8A43094F8923026607F2B1BD057
:108290002A68296894F8A09002F07F02C9B2402AA7
:1082A00094BF00220122802994BF00210121B9F14D
:1082B000070F75D8DFE819F0B60063006E012801DA
:1082C0008201160116014801D4F8A430002BDFD03A
:1082D0002F68D4F8882004F1040C781C0CEBC20839
:1082E000511CC31A01F00F0604204FF0000E0CF8C9
:1082F0003200C8F80430A8F802E0C4F888602F689B
:108300002760C5E7D4F88830201D00EBC3025E1C4F
:108310000021042706F00F0600F8337051805160E9
:10832000C4F8886028682B68C4F8A430206094F8EA
:10833000923063E72B687E49C2EB0309B9F5165FFB
:10834000A6D3D4F8883004F1040A0AEBC30C042243
:108350000AF8332000264FF0020EACF802E0CCF809
:1083600004605F1C07F00F0094F89230C4F8880096
:10837000096821607F2BC4F8A46089D1A4E7002A92
:1083800000F044810026FF224FF0400984F88C6001
:1083900084F88D2084F88E9084F88F2084F89020C3
:1083A000D4F89C301B78B3B32F682A682D6802F28A
:1083B0003556C6F30B0905F66B20B9F5006FC7F308
:1083C0000B0EC0F30B0505D3C9F57F6A0AF10F0741
:1083D0001FFA87F9BEF5006F05D3CEF57F6808F167
:1083E0000F0C1FFA8CFEB5F5006F04D3C5F57F6145
:1083F00001F10F039DB2FF204FEAEE064FEAE902BA
:10840000EF1084F88C6084F88D2084F88E7084F8E6
:108410008F0084F8900004F18C0001F099FC02B008
:10842000BDE8F087D4F89C305978002900F0E3804B
:1084300093ED073A424AF2EE003A23EE234ADFED8B
:10844000414A94F8A800BDEEC46A00F1FF3CB8EEC2
:10845000C65A16EE10AA74EE455A0AEB4A0101F10B
:10846000030865EEA47A02EB080E5718FDEEE76AE2
:10847000565C12F808A09EF801909EF8028097F8CA
:1084800001E0BF7816EE902ACEEB0901C6EB0A0A8E
:10849000C7EB080902FB01F102FB09F85FFA8CFC4B
:1084A00002FB0AF20EEB212E06EB222607EB282711
:1084B000BCF1010F8CBF00216FF00001012894BFB7
:1084C00000206FF000008DF805E084F88DE084F85E
:1084D0008E708DF8046084F88C6084F8901084F8B5
:1084E0008F005FE7002A7AD0FF22002384F88F20D4
:1084F00084F89030002784F88C2084F88D7084F8FC
:108500008E70D4F89C304DE7002900F08680002260
:10851000FF2184F88C1084F88D2084F88E204FF091
:10852000000C84F88F1084F890C0D4F89C3039E7A0
:10853000D436012000008037CDCC4C3F3333333F5D
:1085400020440108000080432F683748374ED4F894
:108550009C304FEA572AA0FB0A714FEA510C0CEBF2
:10856000CC07C7EB0A0808EB480E06EB0E0952428F
:1085700016F80E6099F8010099F802A084F890208E
:10858000002184F88C6084F88D0084F88EA084F833
:108590008F1007E742B3FF2200274FF0200884F82E
:1085A0008C2084F88D7084F88E804FF0000E84F853
:1085B0008F2084F890E0D4F89C30F3E6F9B10026DF
:1085C000FF2184F88C6084F88E6084F88D10002080
:1085D00084F8901084F88F00D4F89C30E2E684F898
:1085E0008F2084F8902085E784F88C2084F88D20F3
:1085F00084F88E20D9E793ED033A0D4A1BE784F8FF
:108600008C1084F88D1084F88E10E0E784F88C20AC
:1086100084F88D2084F88E20BEE684F88C1084F8CF
:108620008D1084F88E107AE7398EE33820440108E3
:108630000044010870B5044690F8AA6090F8AB5069
:1086400090F8AC1090F8AD2090F8AE30D0F89800CB
:1086500084F8A96084F8AA5084F8AB1084F8AC20A0
:1086600084F8AD30DFED1E7A90ED1B7AB4EEE77A38
:10867000F1EE10FA82B00DD590ED1C0AB4EEE70AC7
:10868000F1EE10FA06D5D0ED1E0AF4EEE70AF1EE8F
:1086900010FA14D40020134D84F8AE002968AA887B
:1086A0000091ADF8042004F1A900694606220BF000
:1086B0000FFED0F1010038BF002002B070BD90ED78
:1086C0001D0A00F039FBB2EE001AF6EE001AE0EED9
:1086D000011ABCEEE12A12EE106AF0B2DBE700BF2D
:1086E000CDCC4C3DF8430108D0F89830DFED157A39
:1086F0001A885988B3F804C006EE102ADA8806EE04
:10870000901A05EE902A07EE10CAB8EE460AF8EE67
:10871000660AB8EE471AF8EE651A1A6920EE272A9B
:1087200060EEA72A21EE273A61EEA73A022183EDF7
:10873000222AC2ED032A82ED043AC2ED053A80F8FE
:10874000A010704700008037D0F898309FED216A64
:108750001A88D3ED227A06EE902AFBEEC86A10B58D
:1087600036EEE77A0446B4EEC67AF1EE10FA06DC8D
:108770000121052083F85A1084F8A00010BD9FED58
:10878000160AB4EEC07AF1EE10FAF1D5F3EE080A4B
:1087900080EE871A1A69D0F894004FF0010C77EE3A
:1087A000E61AF6EE005AB0EE675AB2EE082AA1EECB
:1087B000A55AA7EEC12A82ED025A82ED011A82ED76
:1087C000002A83F85AC001F085F8002384F8A0300D
:1087D00010BD00BFCDCCCCBECDCCCCBDD0F8983038
:1087E0009FED2C6A1988D3ED237A9FED2B7A05EE45
:1087F000901AB8EE650AF6EE006AE0EE067A10B559
:1088000067EEA60A0446F4EEC70AF1EE10FA06DB9C
:108810009FED221AF4EEC10AF1EE10FA34D90022CB
:10882000B3F802C09FED1B2AD3ED242A9FED1A3A1C
:1088300001EE90CAF8EE613AB6EE004AE3EE822A03
:1088400062EE844AF4EEC34AF1EE10FA15DB9FEDB6
:10885000135AF4EEC54AF1EE10FA0ED81969C1EDBB
:10886000074A52B1012183F85A10D4F8940001F05C
:1088700031F8002384F8A03010BD0120052283F8D0
:108880005A0084F8A02010BD18690122C0ED060A24
:10889000C6E700BF00008037CDCC4C3F6666663F20
:1088A00038B54B88012B044619D00DD3022B0AD1C1
:1088B000D0F898000022032180F85A2080F85B202D
:1088C00084F8A01038BD38BD90F8A05005F1FF3CE9
:1088D000BCF1030F36D8DFE80CF0312D100CD0F8C6
:1088E0009850002185F85A1085F85B1080F8A03068
:1088F00038BDBDE83840FFF771BFD0F89830DFEDE4
:10890000287A18885A8807EE100A06EE902AB8EEE0
:10891000470AF8EE660A20EE271A60EEA71A012130
:10892000042583ED231AC3ED241A83F85B1084F821
:10893000A05038BDBDE83840FFF706BFBDE838405D
:10894000FFF7D2BEFFF776FE00B3D4F89C10D4F840
:10895000945048784FF0010E80EA0E0307224B70C6
:1089600085F84130714684F8A8E084F8A020D4F856
:108970009C00D4F89420416294F8A8E082F840E08A
:10898000D4F89400BDE8384000F0A4BF94F8A8C023
:108990000CF1010505F0030184F8A810E7E700BF1A
:1089A0000000803730B5D0F88820D0F884300446F5
:1089B000D01A83B0020718BF6D4609D123E0D4F85E
:1089C0008800D4F88420C2EB000C5FEA0C731AD044
:1089D000D4F8843004EBC30101F1040C9CE80300DB
:1089E00085E803009DF80020581C00F00F03042ABE
:1089F000C4F88430E3D101990029E0D120466946CA
:108A0000FFF74EFFDBE794F8A05005F0FD03052BC0
:108A10000AD00C48226801688D1AB5F57A7F84BFA8
:108A20000068206003B030BD06482368016841F249
:108A3000707CCA1A6245F5D9002584F8A05003B0AD
:108A400030BD00BFD43601204B1110B501F01F011D
:108A50000446052B76D8DFE803F00C0C121A22032B
:108A6000D0F8980000EB011292F824305C42E0B29A
:108A700010BDD0F8983033F81110080A10BD014429
:108A800091F89220D2F1010038BF002010BDD0F83B
:108A90009C40081C18BF01202070002010BD052933
:108AA00050D8DFE801F0433F3B301203FFF796FE5A
:108AB000D4F89C10D4F89420002084F8A8004862D0
:108AC00094F8A8C082F840C010BDD0F89800DFED3F
:108AD0001E7A0388418807EE103A06EE901AB8EE27
:108AE000470AF8EE660A20EE271A60EEA71A01235D
:108AF000042280ED231AC0ED241A80F85B30002098
:108B000084F8A02010BDD0F898100323002081F82D
:108B10005A0081F85B0084F8A03010BDFFF714FE06
:108B2000002010BDFFF7E0FD002010BDD0F8981028
:108B30004FF0010C002081F85A0081F85B0084F8A6
:108B4000A0C010BD002010BD0000803770B50446E5
:108B50000E4610482146154600F0DEF90D480E4934
:108B600000F044FB2B46214632460C4807F0C6FD78
:108B70000B48FFF733FB0B4B187818B10A4C2188D0
:108B80008B0600D470BDA2880548D1B2FFF75CFF08
:108B9000A08070BDE0000020001B0020FC1A002017
:108BA000740100202802002000100140704700BF1F
:108BB000FEE700BFFEE700BFFEE700BFFEE700BF25
:108BC000704700BF704700BF704700BF30B585B029
:108BD00001A8012101F024F8022001210BF0FEF888
:108BE0000124002302A921488DF80C308DF80E30A5
:108BF0008DF80D3002948DF80F400AF01FFF9FEDA5
:108C00001C0A1C481C4D05F0D5FF1C4800F0D8FC80
:108C10001B481C4900F04AF8194A1849154B2846C8
:108C2000FFF7B6FA214611480BF054F8011C18BFA3
:108C300001211548154A01F06DFC10B9062085F890
:108C4000A0001148124A3C2101F08EFC10B9062107
:108C500085F8A0100C48182101F002FD074A14788D
:108C600014B10C4800F0E2FE05B030BD0004024033
:108C70000080BB47FC1A002074010020280200205D
:108C8000E00000202C02002070020020007701008C
:108C90004D8B00082402002008B5FFF797FF02481B
:108CA000FFF780FEFBE700BF7401002070B50126CE
:108CB00082B00161044600F0FDFE314604200BF055
:108CC0008DF800254FF480736946194800938DF89C
:108CD00004608DF806508DF805508DF807500AF0A5
:108CE000ADFE144A84F85A6000204FF07C5184F89D
:108CF000245084F8345084F8445084F85450E06789
:108D0000C4F88000E06520666066A066E0662067C3
:108D10006067A067A061A062A063A0642162216374
:108D200021642165E261E262E263E26402B070BD47
:108D3000000802400AD7233CDFED0B7A0B4A60EEB5
:108D4000270ABDEEE07A17EE101A8B00981890ED06
:108D5000000AD0ED016AB8EEC71A36EEC02A70EEEE
:108D6000C11AA1EE820A70470000004468A40108FD
:108D7000028803699FED5F7AD3ED067A90F8591067
:108D8000DFED5D5A06EE902AB8EE660A0029D0EEB5
:108D9000077A70B4BFEE006AF7EE000AF4EEE57AE7
:108DA00014BFB0EE601AB0EE461AF1EE10FA07DD0D
:108DB000DFED521AF4EEE17AF1EE10FA00F18C8058
:108DC0009FED4F6A90ED062AD0ED072A90F82440D7
:108DD000D0ED083AB0EE423A96EE013AA2EE832A7E
:108DE00080ED062A002C68D0DFED464A23EEA44A27
:108DF0004588D3ED077A9FED3F5ADFED3F6A07EED6
:108E0000105AF8EE475A34EE230AD5EE857AB4EEBE
:108E1000C02AF1EE10FAF4EEE67AB4BF002601267D
:108E2000F1EE10FA80F8246006DDDFED340AF4EE8E
:108E3000E07AF1EE10FA43D4DFED311A90ED0A2A10
:108E4000D0ED0B2A90F83430D0ED0C3AB0EE423A27
:108E500091EE813AA2EE832A80ED0A2A43BBDFED30
:108E6000284A2949294D0A68294B90F85A4090F818
:108E700058C080F859C034EEA37A05FB02F6B4EE70
:108E8000C72A3344F1EE10FA4FEAD372B4BF00257B
:108E900001250B6080F8582080F834500CB990F808
:108EA0005B201C4802BB4FF48071418370BC70474B
:108EB0009FED144A63EE844AD3E79FED114A97E78A
:108EC000F5EEC07AF1EE10FAFFEE001AB7EE006A86
:108ED000D8BFF0EE461AB1E7F5EEC07AF1EE10FA1F
:108EE000D8BFB0EE606A6DE74FF48073038370BC47
:108EF000704700BF00008037CDCCCCBDCDCCCC3D81
:108F000000000000CDCC4CBDC00000200D66190053
:108F10005FF36E3C00080240130905EE103AB8EE0C
:108F2000454A2DE9F00F90F858C04FEA82084430C6
:108F300000268C19002A00F052818D5BA5F13307C1
:108F40001FFA87F9531EB9F5B56FC3F301174FF038
:108F5000000300F22C8101231025AA4240D9002FE2
:108F600000F00181012F26D0022F12D0B4F84070FA
:108F7000A7F133091FFA89FABAF5B56F40F22981D2
:108F800007F2DB5B1FFA8BF7B7F5B56F40F225816F
:108F9000103534F825A0AAF13307BFB2B7F5B56F85
:108FA00040F215810AF2DB591FFA89FBBBF5B56F58
:108FB00040F21181103534F825A0AAF13307BFB271
:108FC000B7F5B56F40F2FD800AF2DB591FFA89FB55
:108FD000BBF5B56F00D8013B1035AA4200F2C38043
:108FE00005EE903AB8EEE57A87EE040ABCF1000F80
:108FF000077850ED037A50ED026A10ED012AF7EE82
:10900000000ABFEE006AB0EE671A08BFB0EE606AF1
:1090100096EE001AE6EE817A40ED037A002F40F0DA
:10902000C1809FED703A73EE023AF4EEE37AF1EE0E
:1090300010FAB4BF002301230370002B56D0002A7E
:1090400054D004234FF0000BA8F1040A4345A4F8C0
:1090500000B0CAF3820549D055B3012D21D0022DAD
:109060001CD0032D17D0042D10D0052D09D0062DAE
:1090700002D00027A78008234FF0000924F80390AE
:1090800004334FF0000B24F803B004334FF0000A10
:1090900024F803A004330025E55204330027E752E7
:1090A00004334FF0000924F80390043343451DD0E6
:1090B0001F1D03F1080B03F10C0A0025E55203F113
:1090C0001009E55324F80B5003F1140724F80A5053
:1090D00003F1180B03F11C0A2033434524F809500F
:1090E000E55324F80B5024F80A50E1D10236042E3F
:1090F00000F110007FF41DAFBDE8F00F70470133A1
:10910000103534F825A0AAF13307BFB2B7F5B56F13
:109110003BD8013305F1100A34F82A70A7F133095E
:109120001FFA89FBBBF5B56F3AD907F2DB5A1FFA74
:109130008AF7B7F5B56F00D8013B05F1200934F87F
:1091400029B0ABF13307BFB2B7F5B56F26D90BF233
:10915000DB5A1FFA8AF9B9F5B56F00D8013B3035F3
:10916000AA427FF63DAF34F825A0AAF13307BFB27B
:10917000B7F5B56FC3D90AF2DB591FFA89FBBBF506
:10918000B56F98BF03F1FF33BAE70AF2DB591FFA54
:1091900089FBBBF5B56FBDD8013BBBE70133DEE70B
:1091A0000133CAE7DFED102A22EE223A3BE705F24F
:1091B000DB5A1FFA8AFBBBF5B56F98BF4FF0FF3340
:1091C000CAE61035AA4203F10103CCD808E70133FF
:1091D000F0E60133DCE6013BECE6013BD8E69FED2F
:1091E000017A01E700000000CDCC4CBD38B5044643
:1091F00000892288DFEDE56AD4ED1B7A94ED177AB9
:10920000DFEDE33ADFEDE34A23699FEDE36A93ED97
:10921000024A05EE900A05EE102AB8EE650AF8EE4D
:10922000450A60EE265A20EEA65A35EEE73A35EEAC
:10923000471AE3EE237A0D46A1EE247A67EEA71AC9
:1092400034EE472AC4ED1B7A61EE822A84ED177A48
:1092500062EE866AF5EEC06AF1EE10FA00F19181D5
:10926000F7EE007AF4EE676AF1EE10FACCBFB0EEDA
:10927000670AB0EE660A61896088D4ED1C1A94ED25
:10928000187ADFEDC26A93ED034A85ED000A01EE1C
:10929000100A00EE901AF8EE412AB8EE603AB0EEED
:1092A000612AB0EE470A93EE262A92EEA60ADFED77
:1092B000B83ADFEDB84A9FEDB86AE2EE231AA0EEA5
:1092C000247A21EEA11A74EE476AC4ED1C1A61EEED
:1092D000261A84ED187A61EE863AF5EEC03AF1EE80
:1092E00010FA00F14B81B7EE007AF4EE473AF1EE56
:1092F00010FACCBFF0EE472AF0EE632AA28994ED73
:109300001D0ADFEDA20AA1889FEDA14AD4ED197ACA
:109310009FEDA26ADFED9F4AC5ED012A02EE102AF9
:10932000F8EE426AB0EE401A96EEA01A03EE101A5A
:10933000A1EE040A9A49F8EE431AB0EE677A91EE6C
:10934000A07A20EE062AE7EE247AFDEEC20AC4EDEA
:10935000197A10EE90CA4FEA8C0E84ED1D0A0EEBBE
:109360000100B8EEE03AD0ED006AD0ED014A93ED8D
:10937000044A32EE436A74EEE61A74EE677AE6EE59
:10938000216A37EEA77A77EE260AF5EEC00AF1EEEB
:1093900010FA00F1F080B7EE001AF4EE410AF1EE97
:1093A00010FAC8BFF0EE410AE188B4F80EC094ED9F
:1093B0001A4AD4ED1E4ADFED756ADFED762A9FED7D
:1093C000743AD3ED053AC5ED020A02EE101A06EE24
:1093D00010CAF8EE427AF8EE461AB0EE441A97EE4A
:1093E000A61AB0EE646A91EEA66AA1EE224AE6EEF3
:1093F000034A73EEC42AB0EE003AF0EE643AE2EEAD
:10940000833A84ED1A4AF5EEC03AF1EE10FAF0EE26
:10941000637AC4ED1E4A00F1AB80B7EE004AF4EE69
:10942000443AF1EE10FAC8BFF0EE447AF4EE004A86
:10943000F4EEE40AF1EE10FAC5ED037A17D8DFED89
:10944000591A9FED591AA0EEA11A0020B5EEC01AC4
:10945000F1EE10FA00F19880F7EE000AB4EEE01A8F
:10946000F1EE10FA85ED021AC8BFC5ED020ABFEE93
:10947000002AB4EEC27AF1EE10FA85ED040A08D49F
:10948000B7EE002AB4EEC27AF1EE10FAD8BFB0EE11
:10949000472A30EE070A85ED052AB5EEC00AF1EE3F
:1094A00010FA62D4B7EE007AB4EE470AF1EE10FA81
:1094B000D8BFB0EE407AD3ED002A93ED013AD4ED57
:1094C0001F6A9FED3A6A85ED067AE3EE052A32EED1
:1094D000E65AB4EEC65AF1EE10FA0CD4DFED343A87
:1094E000B4EEE35AF1EE10FADEBFDFED322AE5EE1C
:1094F000226AF0EE662A9FED304AD4ED207ADFED45
:109500002D4AC4ED1F2AF2EE081AE5EE841A204611
:1095100071EEE75AE5EEA47A72EEA70AC4ED207A5E
:10952000C5ED070AFFF724FC94F824302BB194ED25
:109530001B2A22EE020A85ED000A94F834206AB94B
:109540003BB194ED203AF3EE086A33EE266A85EDDE
:10955000076A2046BDE8384000F05CBB94ED1C7AF9
:1095600067EE072AC5ED012AEAE79FED147AA2E724
:10957000DFED127A5AE7DFED110A15E7DFED0F2A6A
:10958000BCE69FED0E0A76E6A86070E70000803723
:10959000D044D83C0AD7A33DCDCCCC3F00000044FA
:1095A00068A40108713D8A3F0AD723BCCDCCCCBE4C
:1095B000CDCCCC3ECDCCCC3D0000704200000000B4
:1095C0002DE9F84F8046002308F8043BB24E81464F
:1095D00000F144074FF0EF0CB246454606F1400B50
:1095E00054460FCC5C4528606960AA60EB60A246D7
:1095F00005F11005F4D143466FEA080113F8012B79
:109600003944BB4201F007004AD048B3012821D0B9
:1096100002281BD0032815D004280FD0052809D014
:10962000062803D013F801BB5A4492B213F8014B39
:10963000224492B213F801AB524492B213F8015B88
:109640002A4492B213F8011B0A4492B213F8010B98
:10965000024492B213F801BB5A44BB4292B21FD0EB
:109660001C469D7814F801ABD87894F800B01C79AA
:10967000597952441BFA82F215FA82F510FA85FAEA
:10968000083313F8020C14FA8AF411FA84FB13F865
:10969000011C10FA8BF211FA82F5BB42AAB2DFD19B
:1096A000D043B6F84030B6F8424081B28B4200F069
:1096B000B7807A4A443E96420CF1FF3C8CD1784BFD
:1096C0007849794A79487A4E7A4DC9F804304FF092
:1096D000000A0124C9F80860C9F80C10C9F8101074
:1096E000C9F81450C9F81800C9F81C20C9F820207E
:1096F000A9F844A089F841A089F8404089F80040C1
:1097000009F080FDF32009F08DFDB9F844606A4B43
:109710006A4D06EB061B4FEA8B0C6344AB4200F22A
:10972000B080002E00F0AF80654D664E0CF1006EEB
:10973000654466440EF580410C4601F1400BC1EBD7
:10974000080A20465AF80410043409F0E1FD5C458B
:10975000F7D143466FEA080813F8012BB844BB421F
:1097600008F007004CD048B3012821D002281BD0B4
:10977000032815D004280FD0052809D0062803D0C7
:1097800013F801CB624492B213F801EB724492B227
:1097900013F8011B0A4492B213F801BB5A4492B267
:1097A00013F801AB524492B213F8014B224492B227
:1097B00013F8018B4244BB4292B221D0184693F871
:1097C00002C010F801BB93F803E090F800A01C79E8
:1097D000997993F805805A441AFA82F21CFA82F0B9
:1097E0001EFA80FC083314FA8CF418FA84FB13F880
:1097F00001EC11FA8BFA1EFA8AF1BB428AB2DDD172
:10980000D743B9B2304609F0A3FD2846B9F8441051
:1098100009F09EFDB9F844305D1CA9F8445006E0FB
:1098200064457FF446AF0CF10106A9F84460D9ED18
:10983000077A9FED257AF4EEC77AF1EE10FA06DC8E
:109840009FED220AF4EEC07AF1EE10FA02D5164A24
:10985000C9F81C20D9ED080A9FED1B1AF4EEC10AC5
:10986000F1EE10FA06DCDFED191AF4EEE10AF1EE82
:1098700010FA04D50C48C9F82000BDE8F88FBDE8FF
:10988000F88FA9F844A00221082009F005FD0D4E2B
:109890000B4D0F4950E700BF7C7F0008BC3F00081C
:1098A0000000C84239B4683F9A99593FAE47013F1A
:1098B0000000DCC2A470FD3E44400008FF7F0008A9
:1098C00042400008404000086666663FCDCC4C3FF1
:1098D000004000082DE9F047074609F093FCF3200B
:1098E00009F0A0FCB7F844104B4B4C4801EB0112B7
:1098F00094002344834207F1040A7FD90025A7F886
:1099000044500221082009F0C7FCDFF81881DFF875
:10991000189143490C4601F14006C1EB0A05204667
:109920002959043409F0F4FCB442F8D1534607F144
:10993000440013F8012B6FEA0A0C844483420CF0B4
:1099400007014AD049B3012921D002291BD003299C
:1099500015D004290FD0052909D0062903D013F802
:1099600001EB724492B213F801AB524492B213F875
:10997000016B324492B213F8015B2A4492B213F89D
:10998000014B224492B213F801CB624492B213F815
:10999000011B0A44834292B21FD01D4693F802E095
:1099A00015F801ABDE7895F800C01D7959799C79DE
:1099B00052441CFA82F21EFA82FE083316FA8EF620
:1099C00015FA86F511FA85FA13F801CC14FA8AF122
:1099D0001CFA81F48342A2B2DFD1D34399B240464C
:1099E00009F0B6FC4846B7F8441009F0B1FCB7F8E6
:1099F0004400421CA7F84420BDE8F087002980D02D
:109A0000DFF82490DFF81C8004F10066A144A04434
:109A100006F580417EE700BF44400008FF7F000854
:109A200000400008404000084240000870B5102087
:109A300086B001210AF0EEF91C4D1D4E01200146B1
:109A40000AF0CCF90024022328464FF4C06269468C
:109A50008DF805308DF8043000928DF806408DF8B1
:109A6000074009F0EBFF2846092107220AF03EF9DA
:109A700028460A2107220AF039F94FF416550C221C
:109A8000304602A9ADF81220ADF80C40ADF80E40FA
:109A9000ADF81040ADF8144002950AF0FFF93046D9
:109AA00001210AF067FA06B070BD00BF0000024055
:109AB000001001402DE9F04F01219DB006464FF402
:109AC00080000AF08BF9012001460AF087F9DFF8DF
:109AD0003C914C4D4FF48070012100240AF09AF91A
:109AE0004FF00308FF2301A94748019308274FF4CB
:109AF000006A8DF80B408DF808804FF4806B09F0F8
:109B00009DFFDFF80CC10F964FF4005E01264FF465
:109B100000334FF4807248460DA9CDF838C0CDF817
:109B200054E0179316920D941094129418941A946A
:109B30001B941197CDF84CB0CDF850A0199609F0B0
:109B4000C9FC4846314609F001FD4FF470624FF4FC
:109B5000403103A8069204910394059409F0C2FAD7
:109B6000284607A9CDF82CA007948DF820608DF821
:109B700021400A9409948DF8307009F085FA28463E
:109B800031463246072309F0CFFA022128460A4619
:109B9000072309F0C9FA284642460421072309F0A1
:109BA000C3FA284641460422072309F0BDFA0521DD
:109BB00028460A46072309F0B7FA062128460A462E
:109BC000072309F0B1FA072228462146134609F077
:109BD000ABFA07210B463A46284609F0A5FA284673
:109BE000314609F005FB2846314609F093FA28462C
:109BF000314609F0F3FA284609F0EAFA1DB0BDE84B
:109C0000F08F00BF002001400000024010640240BD
:109C10004C200140014809F0DBBA00BF00200140A0
:109C200001B970474FF000604FF4004109F0B0BB3C
:109C30002DE9F04301218BB0064604200AF0CEF84E
:109C4000022001210AF0CAF8DFF800913D4D0420FE
:109C5000012100240AF0D0F80127302369463A4850
:109C600000934FF002088DF804708DF806408DF8CF
:109C700005408DF8074009F0E1FE694648464FF47B
:109C8000E07200928DF806408DF805408DF807408F
:109C90008DF8048009F0D2FE4846424606210AF0BB
:109CA00025F84846424607210AF020F84246484631
:109CB00008210AF01BF802A80AF0BCF9FF2302A948
:109CC00028460393ADF80840ADF81040ADF80A40BF
:109CD0008DF812400AF05EF905A80AF0A7FA602292
:109CE000284605A9ADF81420ADF816700794ADF814
:109CF0002040ADF824400AF0C7F9284608210AF0B0
:109D00009FFA284605A90AF001FA284608210AF018
:109D1000A1FA284605A90AF041FA284608210AF0C6
:109D2000A5FA284639460AF08FF9284639460AF03E
:109D30009BF934707470B470F470347174710BB03A
:109D4000BDE8F08300080040000802400004024023
:109D500010B5184B0278DA63044640785863A1784E
:109D6000996394F805C0E3780CF1100E5FFA8EF257
:109D7000FF2B627115D09A422CBF002201220E489F
:109D8000102109F0ADFF2079FF280CD062798242C2
:109D90002CBF0022012208482021BDE8104009F014
:109DA0009FBF0122EBE7012203482021BDE81040BC
:109DB00009F096BF000800400008024010B50121DC
:109DC00082B0044602200AF009F802210023012291
:109DD000009108488DF8043069468DF806308DF8FA
:109DE00005308DF8072009F029FEFF20207002B011
:109DF00010BD00BF0004024038B5057804466A0073
:109E000002210348D5B209F065FF2843207038BD10
:109E1000000402402DE9F0412A4C2B4F82B006206D
:109E2000012109F0DBFF02254FF4406300262046A4
:109E300069464FF0010800938DF804508DF80550E5
:109E40008DF806808DF8076009F0F8FD20460A219C
:109E5000042209F04BFF20460B21042209F046FFA3
:109E60004FF470422046694600928DF804508DF8F8
:109E700005508DF806608DF80760402509F0DEFD7D
:109E800069463846009509F0D9FD20460C21052287
:109E900009F02CFF20460D21052209F027FF20465E
:109EA0000F21052209F022FF20460E21052209F08C
:109EB0001DFF38460621052209F018FF404602B072
:109EC000BDE8F0810004024000080240F0B5154CE6
:109ED00085B001214FF4800009F08EFF204609F083
:109EE00095FC04A9104B41F8103D4FF480624FF4EB
:109EF000804C2046694600274BF6FF763325ADF8A7
:109F00000A20ADF80CC0ADF80470ADF80660ADF8ED
:109F1000085009F0B1FC2046012109F027FD01207D
:109F200005B0F0BD00580040A086010070B50020CB
:109F300084B014460E4609F04BFF002009F0F8FEED
:109F40004BF680339C420CD04AF64440844261D0A8
:109F5000B4F5FA4F64D035498C4255D0002004B096
:109F600070BD4FF48170032109F0D8FE012009F083
:109F7000DFFE3B2009F078FF4FF4805510BB3B20FB
:109F800009F072FFF0B93B2009F06EFFD0B93B2019
:109F900009F06AFFB0B93B2009F066FF90B93B2099
:109FA00009F062FF70B93B2009F05EFF50B93B2019
:109FB00009F05AFF30B93B2009F056FF10B9083DAF
:109FC000DDD1CBE74FF48040012109F015FF18489F
:109FD00009F0E8FA00220294ADF80220ADF804205E
:109FE000ADF80C200EB14FF4007669461048ADF87C
:109FF0000060ADF8066009F03DFB69460D4809F0C8
:10A00000CFFB012004B070BD40F28910042109F09B
:10A0100085FEABE740F20F10062109F07FFEA5E7B1
:10A020004FF4D570042109F079FE9FE70077010015
:10A03000003800400034004070B573480E464FF4BD
:10A040000031154609F0DCFC4FF4961498B34FF438
:10A0500000316D4809F0D4FC4FF4003158B36A4820
:10A0600009F0CEFC4FF4003128B3674809F0C8FC72
:10A070004FF40031F8B1644809F0C2FC4FF40031EC
:10A08000C8B1614809F0BCFC4FF4003198B15E489A
:10A0900009F0B6FC4FF4003168B15B4809F0B0FC40
:10A0A0004FF4003138B1584809F0AAFC18B1083C07
:10A0B000CDD1002070BD5448012109F067FC524801
:10A0C000524909F08FFC4FF4805450BB4F494E4821
:10A0D00009F088FC4D4920BB4B4809F083FC4B49F3
:10A0E000F8B9494809F07EFC4849D0B9464809F01A
:10A0F00079FC4649A8B9444809F074FC434980B941
:10A10000414809F06FFC414958B93F4809F06AFCE1
:10A110003E4930B93C4809F065FC10B9083CD5D13E
:10A12000C7E739483421002209F050FC3648384945
:10A1300009F058FC4FF4805450BB3549324809F0BF
:10A1400051FC334920BB304809F04CFC3049F8B988
:10A150002D4809F047FC2E49D0B92B4809F042FCA4
:10A160002B49A8B9284809F03DFC294980B926485F
:10A1700009F038FC264958B9234809F033FC244932
:10A1800030B9214809F02EFC10B9083CD5D190E730
:10A19000C5F3002141EA4600C1B21B4809F020FC8A
:10A1A00019481C4909F01EFC4FF48054002833D193
:10A1B0001849154809F016FC164968BB124809F001
:10A1C00011FC144940BB104809F00CFC114918BBA4
:10A1D0000D4809F007FC0F49F0B90B4809F002FCE3
:10A1E0000C49C8B9084809F0FDFB0A49A0B906485E
:10A1F00009F0F8FB074978B9034809F0F3FB58B9AF
:10A20000083CD5D155E700BF0058004001000300CD
:10A210008200070080000700E9B2364809F0E0FB41
:10A220003448354909F0DEFB4FF4805650BB3249C3
:10A23000304809F0D7FB304920BB2E4809F0D2FB4B
:10A240002D49F8B92B4809F0CDFB2B49D0B9294845
:10A2500009F0C8FB2849A8B9264809F0C3FB2649DC
:10A2600080B9244809F0BEFB234958B9214809F0B8
:10A27000B9FB214930B91F4809F0B4FB10B9083EB9
:10A28000D5D116E71B481D4909F0BAFB4FF49614C7
:10A2900050BB1A49174809F0B3FB184920BB1548B1
:10A2A00009F0AEFB1549F8B9124809F0A9FB1349AA
:10A2B000D0B9104809F0A4FB1049A8B90D4809F01D
:10A2C0009FFB0E4980B90B4809F09AFB0B4958B91E
:10A2D000084809F095FB094930B9064809F090FB98
:10A2E00010B9083CD5D1E4E60248012109F05EFB33
:10A2F000012070BD005800408000070004000010DD
:10A3000070B50C4616460F2100220546FFF794FE55
:10A3100000283BD0284600211722FFF78DFE002899
:10A3200034D0284601211722FFF786FE70B3284655
:10A3300002210022FFF780FE40B3284603210022BD
:10A34000FFF77AFE10B3284604211222FFF774FEAD
:10A35000E0B1002228460521FFF76EFE002C14BF55
:10A3600062224222D0B128460621FFF765FE002C6A
:10A370000CBF42220222B8B9E4B14AF644439E42DD
:10A380000CBF2022002218BB002070BD002C4FF013
:10A39000000014BF622242220028E4D1002C0CBF2E
:10A3A000422202220028E7D028460721FFF744FE78
:10A3B000002CE2D1B6F5FA4F19D01ADD4AF6444224
:10A3C000964212D00E498E4218D11C220028DBD0B2
:10A3D00028460821FFF730FE0028D5D0284609215D
:10A3E0000022BDE87040FFF727BE2022CBE71822ED
:10A3F000C9E7B6F5FA5F01D10C22C4E70022C2E733
:10A40000007701002DE9F04F3B4F3C4E044683B0EE
:10A4100001214FF4001009F0E1FC3846002109F059
:10A4200095F8384608F0BEFF354BA36100254FF480
:10A4300080634FF6FE724FF4006B4FF4005A4FF4F6
:10A4400080794FF400384021E362626221626561E5
:10A45000E561A56225646564A564E564C4F830B06F
:10A46000C4F834A0C4F83890C4F83C80384604F1ED
:10A4700014010093019209F02DF82946304609F0A5
:10A4800065F8304608F08EFF1E4F0199009AA565C9
:10A490004FF0C060E56521666566A266C4F86CB0E1
:10A4A000C4F870A0C4F87490C4F87880E567C4F864
:10A4B0008050C4F88450C4F888502065676504F162
:10A4C0005001304609F006F830460F4E182101229F
:10A4D0004FF4804409F044F80C4834600221012212
:10A4E00009F088F901210A46094809F083F9012099
:10A4F00003B0BDE8F08F00BF7060024058600240BA
:10A500000C3800400C34004000E100E0003800400E
:10A510000034004070B5134B0446154600224560D8
:10A520001860026121700E46FFF774FC08B9002024
:10A5300070BD2046FFF7CAFC0028F8D020463146FF
:10A540002A46FFF7F3FC0028F1D031462A46204680
:10A55000FFF7D6FE0028EAD02046BDE87040FFF79E
:10A5600051BF00BFD0360120F8B50E46174609216D
:10A5700001220446FFF760FD054600283DD0602E0D
:10A5800053D82378002B3AD02F482761818B4A0576
:10A5900052D52E48828B53054AD5207804F18C077A
:10A5A00004F68C43E761A36568B960684BF6803CAC
:10A5B000604545D0264A904244D0B0F5FA4F0CBFD2
:10A5C0000321012100E00121B70001FB07F36362D1
:10A5D0002366E1601F48A66004F1140108F07AFFC9
:10A5E00004F150011C4808F075FF1A48012108F0D9
:10A5F000ADFF1948012108F0A9FF2846F8BD17480A
:10A600004FF4805109F066FB0028F8D113484FF44D
:10A61000805109F05FFB0028B6D110484FF48051FB
:10A6200009F058FB0028F1D0AEE700252846F8BD18
:10A63000012109F0A5F8B0E7012109F0A1F8A8E788
:10A640000221C1E70421BFE7003800400034004088
:10A650000077010070600240586002400004024030
:10A6600038B58CB2224600210546FFF7E5FC00B95B
:10A6700038BD284622460121BDE83840FFF7DCBC42
:10A68000D0F810C02DE9F0410646BCF1000F00F0F3
:10A690000A818268C56805FB02F7780001FB00F1BA
:10A6A00001F2446306EB430806EB410404F18C0716
:10A6B00008F10400002D6FD0510001296CD96D0004
:10A6C00008F1020E0EEB820E441908F10603C0EBEE
:10A6D0000E01B4F80080A0F8028002397345C1F37E
:10A6E00042012C4458D069B3012924D002291ED03C
:10A6F000032917D0042911D005290AD0062904D02E
:10A70000B4F8008023F8028F2C44218823F8021F1C
:10A710002C44B4F8008023F8028F2C44218823F8BD
:10A72000021F2C44B4F8008023F8028F2C442188A7
:10A7300023F8021F2C44B4F8008023F8028F7345DD
:10A740002C4429D01946B4F8008021F8028F34F83F
:10A75000058021F8028F04EB050834F815404C8081
:10A7600038F815101981A84408EB050138F8154090
:10A770005C8131F81580A3F80C8029444C1931F81C
:10A780001510D98134F81580A3F81080103304EB2C
:10A79000450473452C44D5D13946E047F268002A78
:10A7A00000F08380B068450007EB80034FEA420E5B
:10A7B0006E1E0EFB067706F1FF3C33F8024D3C801F
:10A7C0006046CEEB07020CF0070100286FD0C9B33A
:10A7D000012930D0022927D003291ED0042916D000
:10A7E00005290ED0062906D033F8025D15800CF13C
:10A7F000FF30CEEB020233F8026D16800138CEEB4B
:10A80000020233F8027D17800138CEEB020233F8E2
:10A81000024D14800138CEEB020233F8028DA2F80B
:10A8200000800138CEEB020233F802CDA2F800C05E
:10A830000138CEEB020233F8021D11800138CEEB55
:10A84000020236D01F46CEEB020537F8026D1680A5
:10A850003C46CEEB050834F8021D298034F802CCC2
:10A86000A8F800C0CEEB080233F8087C1780CEEBC6
:10A87000020533F80A6C2E80CEEB050433F80C8CFD
:10A88000A4F80080CEEB040C33F80E1CACF80010DA
:10A89000CEEB0C0233F8107C17800838CEEB0202A6
:10A8A000A3F11003CED1BDE8F081BDE8F081BDE891
:10A8B000F081BDE8F08100BF08B50F4B1A6812F0B7
:10A8C000C05F0FD10C4B1A6812F0A05F00D108BD19
:10A8D0000A484FF0A051996000680021BDE8084087
:10A8E000FFF7CEBE05484FF0C051996000680121C6
:10A8F000FFF7C6FEE6E700BF00600240D036012049
:10A900002DE9F00F90B000F5AA7102900A4600F50B
:10A9100035741046002340F8043B203242F81C3CBA
:10A92000436042F8143C42F8103C42F80C3C42F8B8
:10A93000083C42F8043C9442EBD1029D05F50476B4
:10A94000C5F8D832C5F8DC32C5F8E032C5F8E432D3
:10A95000C5F8E832C5F8EC32C5F8F032C5F8F43283
:10A96000C5F8F832C5F8FC32C5F80033C5F8043331
:10A97000C5F8D462AA4605F59077D1464FF0000895
:10A9800049F8048B0AF1200A4AF81C8CC9F80480A3
:10A990004AF8148C4AF8108C4AF80C8C4AF8088C47
:10A9A0004AF8048C5745E8D1029C04F5927B04F1E7
:10A9B0008C035945C4F8203148D0DDF80890CBF815
:10A9C0000080CBEB010C09F59475ACF10400A942B1
:10A9D000C0F382023AD01AB3012A1BD0022A16D041
:10A9E000032A11D0042A0CD0052A07D0062A1CBF3E
:10A9F000002245F8042B002645F8046B002745F893
:10AA0000047B002445F8044B002345F8043B002058
:10AA100045F8040B4FF0000845F8048BA94215D007
:10AA2000AB464FF0000A4BF804AB203545F81CACA0
:10AA3000CBF804A045F814AC45F810AC45F80CACC4
:10AA400045F808AC45F804ACA942E9D10299029A4C
:10AA5000029801F5EA4C0CF108050F950F9E02F5DE
:10AA6000EA4906F10C030F9A0E9309F1140302F15F
:10AA70002C060A93029A029B0D964FF0FF3109F1C2
:10AA8000180700250B91099709F1340803F12C07E9
:10AA900009F13804069102F10C0600F5C161029B30
:10AAA000CDF8208007940C9503910596049797495B
:10AAB000059F4A59029E92ED007ADDF810B0029986
:10AAC000DFED937A03F5EA4A03F5EA4404F16800FE
:10AAD000FDEEC70A0E9C01900AF108090AF1580C14
:10AAE0000AF10C0803F5EA4AB81B0D9F0AF110069B
:10AAF00003F5EA4AC1EB0B012044CAED150A10EE3A
:10AB0000904ADDF82CA03944602797FBF4FBA2455E
:10AB1000059FDDF810A0B8EEE01A07F164070AF10E
:10AB2000640AC0EE011A05F1040503F164030597F8
:10AB3000CDF810A002D0069F01370697069FC9F8EE
:10AB40000070039FC8ED001ACCF8007092ED012A46
:10AB50000B94FDEEC22A07EB8B07039712EE907A57
:10AB600007FB04F4019FDDF828B03C60D2F80890A0
:10AB7000C6F80090C0ED047AC0ED027AC0ED037A09
:10AB8000C0ED017A40ED017AC0ED007A0998D2F863
:10AB90000CC0D2F810804BF864CB40F8648B41EDC8
:10ABA000047A41ED067A41ED057A41ED077A41EDEF
:10ABB000097A41ED087A08995669CDF828B092696A
:10ABC000099041F8646BDDF830A00891A245B8BF48
:10ABD000A246079CCDF830A044F8642B502D079472
:10ABE0007FF465AF029F0F9C47F6744547F6D84344
:10ABF0007859461CFE5007F5A85907F5EA4C216E16
:10AC000022685746B7F5807FA8BF4FF4807709F1D7
:10AC100008030CF164001426C1EB0708002A6BD16D
:10AC2000A8F19008E26C40F8083C02EBD27BA8EB5C
:10AC30006B0525EAE57A9AFBF2F909F1010203EBCB
:10AC4000820100258B4240F8042C056047D04FF06C
:10AC5000000CC3EB010843F804CBA8F1040B9942A4
:10AC6000CBF382023BD032B3012A1ED0022A18D085
:10AC7000032A12D0042A0CD0052A06D0062A18BFAF
:10AC800043F804CB002543F8045B4FF0000A43F877
:10AC900004AB4FF0000943F8049B4FF0000C43F85D
:10ACA00004CB4FF0000843F8048B4FF0000B43F83F
:10ACB00004BB994213D01D46002245F8042B2033D3
:10ACC00043F81C2C6A6043F8142C43F8102C43F80A
:10ACD0000C2C43F8082C43F8042C9942EBD1013E8C
:10ACE00004F1640400F164000BD00B462268216E6D
:10ACF000C1EB0708002A93D0012A08BFA8F1180861
:10AD000090E710B0BDE8F00F704700BF00000020D2
:10AD1000000000002DE9F00F2DED108B47F2545389
:10AD20008EB0C45806928146B2FBF4F200F59160F1
:10AD3000099100EB820109F54275099E079088424E
:10AD400008950D960B900C9549D00F1A09F28C4A74
:10AD500007984FF000083C1F5145C4F38203C0F828
:10AD600000803CD02BB3012B1ED0022B19D0032B1B
:10AD700014D0042B0FD0052B09D0062B1CBFCAF80A
:10AD8000008009F5926A4FF0000B4AF804BB4FF0BF
:10AD9000000C4AF804CB00224AF8042B00254AF89C
:10ADA000045B00264AF8046B00274AF8047B5145EF
:10ADB00015D0D046002448F8044B0AF1200A4AF87E
:10ADC0001C4CC8F804404AF8144C4AF8104C4AF895
:10ADD0000C4C4AF8084C4AF8044C5145E9D109F5A5
:10ADE000EA4101F1080C09F5F94309F5EA4A0CF1C9
:10ADF000540003F1580204900AF15C0B0592DDF84F
:10AE00001080DCF84C10069BC8EB0B054D4405F593
:10AE1000EA4606F108073C6801940DF1380A0AEB8E
:10AE20008400B3FBF1F2029250F80C8C002A00F07F
:10AE3000D280049EDBF80830DCF85070C9EB0C05BA
:10AE40003544A5F5EA415C1C51F8042C51F8080C76
:10AE500094FBF2FA394602FB1A4400EB830351F8E3
:10AE6000046B1E60A5004619029BD6ED007A98ED92
:10AE7000007A039607EB830637EE270AC7EB060A2C
:10AE80004346AAF1040AB142A3EC010ACAF3810ABB
:10AE900000F09F80BAF1000F46D0BAF1010F2CD01C
:10AEA000BAF1020F14D0013494FBF2F502FB154401
:10AEB000DDF80CA07F68CAF80070A5004719D7ED2F
:10AEC000000A98ED011A71EE201A0431E3EC011A20
:10AED000013494FBF2FA02FB1A44471951F8048B2F
:10AEE000C7F80080A50000EB050A9AED002AD3ED13
:10AEF000002A32EE823AA3EC013A013494FBF2F7D5
:10AF000002FB174400EB050A51F8048BCAF80080D5
:10AF1000A5004719D7ED003A93ED004A74EE234A95
:10AF2000B142E3EC014A54D00F460134B7EC015A68
:10AF300094FBF2FA00EB050802FB1A4588ED005A73
:10AF400000EB8508D8ED005A93ED006A76EE256A8D
:10AF50001C46E4EC016A013591ED018A95FBF2FA99
:10AF600002FB1A5588ED008A00EB850898ED009ADF
:10AF7000D3ED018A78EE899A0135C4ED009AD7F8AD
:10AF800004A0C8F800A095FBF2F702FB175500EBF0
:10AF9000850A94ED01AADAED00AA6C1C3AEE2ABAF1
:10AFA00094FBF2F783ED02BA02FB1744D1F80C8050
:10AFB000CAF80080A50000EB050AD3ED03BA9AEDAC
:10AFC00000CA10317BEE8CCA1033B14243ED01CA86
:10AFD000AAD1CBF80840DCF864200198904205D053
:10AFE000019E8EB1019B012B00F0198105990CF196
:10AFF000640C8C450BF1640B7FF401AF0EB0BDEC1B
:10B00000108BBDE8F00F7047029B99EDB63AD9ED71
:10B01000B73A99EDB84AD9EDB94A99EDBA5AD9ED8E
:10B02000BB5A99EDBC0A99EDBD1AD9EDBE1A99ED3E
:10B03000BF2AD9EDC02A99EDC16A03F1FF3A002B6E
:10B0400000F0C281089B079915E0F0EE422AB0EEAD
:10B05000612AF0EE411AB0EE401AB0EE650AF0EE49
:10B06000455AB0EE645AF0EE444AB0EE634AF0EE50
:10B07000433AB0EE603AED4DED4F9FEDEE7A9FED25
:10B08000EE8ADFEDEE8AEE4CEE4A9FEDEFAADFEDA1
:10B09000EFAAEF48DFEDEF0A9FEDEFCADFEDEFCA51
:10B0A0009FEDEF9ADFEDEF9A9FEDEFEADFEDEFEA2C
:10B0B0009FEDEFBADFEDEFFA9FEDEFFA07EE905A52
:10B0C0000BEE907AF0EE476AB0EE476AE2EEA76ABE
:10B0D000DB4FA2EEAB6A0AF1FF3A10330DEE904A55
:10B0E0000DEE102AA2EE086AD64CE2EE286AF0EEC7
:10B0F000477AE2EEAD7AA2EE8D7A0BEE900AA1EEDF
:10B100008A6AE1EEAA6AA2EE2B7AE2EE207AA1EE3A
:10B110000C6AE1EE2C6AA1EE897AE1EEA97ADFED04
:10B12000D7BA9FEDD7DADFEDD7DAA0EE0E6AE0EE00
:10B130002E6AA1EE0B7AE1EE2B7AA5EEAF6AE5EE70
:10B140008F6AA0EE0D7AE0EE2D7AA5EE0F6AE5EE9D
:10B150002F6A9FEDCDFADFEDCDFAA5EE8F7AE5EE01
:10B16000AF7AA5EE2F7AE5EE0F7AE4EE8E6AA4EEC2
:10B17000AE6AA4EEAD7AE4EE8D7AE4EE0C6AA4EE4B
:10B180002C6AA4EE2B7AE4EE0B7AE3EE8A6AA3EE45
:10B19000AA6AE3EE897AA3EEA97AE3EE086A08EEDA
:10B1A000100AA3EE286AA3EE207A08EE905AE3EE86
:10B1B000087A9F4DF1EC010A09EE104A0AEE105A86
:10B1C0000AEE907AA0EEA86A1AF10104E0EE8A6A0B
:10B1D000A0EEAA7AE0EE897A03ED016A43ED046AF3
:10B1E00003ED027A43ED037A7FF42FAFC9EDB60A7F
:10B1F00089EDB73AC9EDB83A89EDB94AC9EDBA4A0D
:10B2000089EDBB5AC9EDBC5A89EDBD0A89EDBE1A5C
:10B21000C9EDBF1A89EDC02AC9EDC12AE6E6029937
:10B22000D9ED491A99ED4A2AD9ED4B2A99ED4C3AB4
:10B23000D9ED4D3A99ED4E4AD9ED4F4A99ED505A14
:10B24000D9ED515A99ED526AD9ED530A99ED54DA74
:10B250004F1E002900F0D180099E089D15E0F0EEF8
:10B26000460AB0EE656AF0EE455AB0EE645AF0EE6A
:10B27000444AB0EE634AF0EE433AB0EE623AF0EE82
:10B28000422AB0EE612AF0EE411A814CDFED697A74
:10B29000804A9FED818A9FED819ADFED819ADFEDF3
:10B2A000818ADFED81AA9FED81BA9FED81AA9FED92
:10B2B00081CADFED81CADFED81BADFED81DA9FED72
:10B2C00081EA9FED81DA9FED81FADFED81FADFED12
:10B2D00081EAB5EC011A6F4800EE104AF0EE676A99
:10B2E000E0EE806A013F0C3600EE102AB0EE677A7D
:10B2F000A0EE887AE0EE807AE6EE096AA6EE297A78
:10B30000E6EE287AE5EEAA6AA5EE8B7AE5EE8A7A71
:10B31000E5EE0C6AA5EE2C7AE5EE2B7AE4EEAD6A4A
:10B32000A4EE8E7AE4EE8D7AE4EE0F6AA4EE2F7A24
:10B33000E4EE2E7AE3EEAF6AA3EE8F7AE3EEAE7A16
:10B34000E3EE0E6AA3EE2D7AE3EE0D7AE2EEAC6A3E
:10B35000A2EE8C7AE2EEAB7AE2EE0B6AA2EE2A7AE9
:10B36000E2EE0A7AE1EEA96AA1EE897AE1EEA87A24
:10B37000E1EE086A09EE100A08EE104AE1EE097AD9
:10B38000781CA1EE087A46ED016A06ED037A46EDD7
:10B39000027A7FF464AF89ED491AC9ED4A1A89ED42
:10B3A0004B2AC9ED4C2A89ED4D3AC9ED4E3A89ED4B
:10B3B0004F4AC9ED504A89ED515AC9ED525A89EDAB
:10B3C000536AC9ED540A11E6F0EE430AB0EE633A4F
:10B3D000F0EE443AB0EE644AF0EE454AB0EE655AFB
:10B3E000F0EE405AB0EE410AB0EE611AF0EE421AA9
:10B3F000B0EE622AF0EE462AF8E6B0EE611AF0EE00
:10B40000421AB0EE622AF0EE432AB0EE633AF0EE52
:10B41000443AB0EE644AF0EE454AB0EE655AF0EEBA
:10B42000465AB0EE606AF0EE4D0AB4E783E6A8BA79
:10B43000C4A91DBA00000000F41C92393576563CB0
:10B44000D4D7CABAAB4792BAA016833C5DFD40BCC4
:10B450008C4C673B8866063CD2A20FBDC0E19EBD06
:10B460004E80683C2269AB3B31EE54BDD8B8573EA4
:10B4700060D873BD719CAC3E99E8193FD4B19DBDB5
:10B480003FE6BA3BD4C7C33D63CFE93E60CD0C3F36
:10B490007D5F5D398964763A77E9243BD6D79E3B58
:10B4A0001DCCD53BCA7EE23B6FEA603A3C41FEBC14
:10B4B000062D45BC4E5A4DBD6D5E2BBD05AE6EBD15
:10B4C00049212A3C4796633EE2C7CF3D65FDB33E26
:10B4D000F51B063F2E09EC3E2DE9F043814CA4FB01
:10B4E000035675082DED108B05EB4508434585B0D7
:10B4F00006461746894640F0EF80B3F5907F80F00E
:10B500001981002B00F0E88001F10C00D6F8201121
:10B510000C4650F80C2CC1F8902044F80429B44291
:10B5200038BF01F18C04254650F8081CC6F82041AC
:10B53000C4F8901045F80419B54238BF04F18C05E1
:10B54000294650F804CCC6F82051C5F890C041F8FF
:10B5500004C9B14201D205F18C01D1ED24FA9FED6D
:10B56000627ADFED627A91ED23FADFED616AD1ED67
:10B5700022EA9FED606A91ED21EADFED5F5AD1ED9D
:10B5800020DA9FED5E5A91ED1FDADFED5D4AD1EDD5
:10B590001ECA9FED5C4A91ED1DCADFED5B3AD1ED0D
:10B5A0001CBA9FED5A3A91ED1BBADFED592AD1ED45
:10B5B0001AAA9FED582A91ED19AADFED571AD1ED7D
:10B5C000189A9FED561A91ED179ADFED550AD1EDB5
:10B5D000168A9FED540A9FED548AC6F82011EFEEAB
:10B5E000877A033B00F10C00D1ED15FAEFEE267AD5
:10B5F0009FED4EFAEEEE867AD1ED13EAEEEE257A65
:10B600009FED4BEAEDEE857AD1ED12DAEDEE247A7C
:10B6100091ED11DAECEE847AD1ED10CAECEE237ADA
:10B6200091ED0FCAEBEE837AD1ED0EBAEBEE227AF2
:10B6300091ED0DBAEAEE827AD1ED0CAAEAEE217A0A
:10B6400091ED0BAAE9EE817AD1ED0A9AE9EE207A22
:10B6500091ED099AE8EE807AD1ED088AEFEE887ACA
:10B66000D1ED14FAEFEE8F7AD1ED06FAEEEE8E7A86
:10B67000D1ED05EAEDEE8E7AD1ED04DA91ED01EA35
:10B68000EDEE0F7A91ED02FAECEE887AECEE007AAC
:10B69000EBEEA07AEBEE017AEAEEA17AEAEE027A1C
:10B6A000E9EEA27AE9EE037AE8EEA37AD1ED073A61
:10B6B000E3EE847AEFEEA47AEEEE857AEDEEA57AEB
:10B6C000D1ED035AE5EE867AEFEE267AEEEE077AB2
:10B6D000E7EC017A7FF41CAF05B0BDEC108BBDE840
:10B6E000F08300BFABAAAAAAFE9493380000000022
:10B6F0000643A439F4E15B3A73CAD33A31FF163BEF
:10B7000013880E3BA0F195395A7383BBD38029BCB3
:10B71000DFE688BCAE1E9FBCE67D64BC0CD7623BF6
:10B7200041850A3D84B9973D87FCEF3D745B1D3E22
:10B73000F1CF323E00F18C0490222046029308F0B3
:10B74000FBFD029B09F19001324607F1300854EDF0
:10B7500023FA1FED1B7A5FED1B7A54ED228A5FED11
:10B760001C6A14ED21FA1FED1D6A14ED209A5FED9D
:10B770001E5A54ED1FEA1FED1F5A14ED1EEA5FED2D
:10B78000204A54ED1DDA1FED214A14ED1CDA5FED5D
:10B79000223A54ED1BCA1FED233A14ED1ACA5FED8D
:10B7A000242A54ED19BA1FED252A14ED18BA5FEDBD
:10B7B000261A54ED17AA1FED271A14ED16AA5FEDED
:10B7C000280A54ED159A1FED290A1FED298AEFEE7C
:10B7D000877A02F10C0E54ED12FAE8EEA67A5FEDCC
:10B7E0002D8AEFEE067A14ED0FFAE9EE257A1FEDB9
:10B7F000309A8DED03FAEEEE857A54ED0EEA14EDF3
:10B800000DFACDED01EAEEEE247A54ED0CEA14EDDA
:10B810000BEAEDEE847A54ED0ADAEDEE237A14EDBC
:10B8200009DAECEE837A54ED08CAECEE227A14EDD4
:10B8300007CAEBEE827A54ED14BAEBEE217A14EDDE
:10B8400013BAEAEE817A54ED04AAEAEE207A14EDF6
:10B8500011AAE9EE807A54ED029AEBEE887A54ED63
:10B8600006BAEBEE287A14ED05BAEFEE897A54EDBC
:10B8700010FAEAEE097A14ED03AA14ED019AEFEE3C
:10B88000A87A02F19804DDED03FAD2ED238AEFEEF7
:10B89000887A72469DED018AE8EE007AEFEE207A12
:10B8A000EEEE817AEEEE217AEDEE827AEDEE227AFC
:10B8B000ECEE837AECEE237AEBEE847AEBEE247AEC
:10B8C000EAEE857AEAEE257AE9EE867AE9EE267ADC
:10B8D000E8EE877AE7EC017A47457FF438AF6E4DA2
:10B8E000A3F12404A5FB040C5FEA8C7340F1FC80F7
:10B8F0002346084650ED23FA9FED697ADFED677A1B
:10B9000050ED228ADFED676A10ED21FA9FED666A3D
:10B9100010ED209ADFED655A50ED1FEA9FED645A55
:10B9200010ED1EEADFED634A50ED1DDA9FED624A2D
:10B9300010ED1CDADFED613A50ED1BCA9FED603A65
:10B9400010ED1ACADFED5F2A50ED19BA9FED5E2A9D
:10B9500010ED18BADFED5D1A50ED17AA9FED5C1AD5
:10B9600010ED16AADFED5B0A50ED159A9FED5A0A0D
:10B970009FED5A8AEFEE877A0746033B50ED12FAA5
:10B98000E8EEA67A00F10C00DFED558AEFEE067ABC
:10B9900010ED12FAE9EE257A9FED529A8DED03FA39
:10B9A000EEEE857A50ED11EA10ED10FACDED01EAD8
:10B9B000EEEE247A50ED0FEA10ED0EEAEDEE847A09
:10B9C00050ED0DDAEDEE237A10ED0CDAECEE837A21
:10B9D00050ED0BCAECEE227A10ED0ACAEBEE827A39
:10B9E00050ED17BAEBEE217A10ED16BAEAEE817A35
:10B9F00050ED07AAEAEE207A10ED14AAE9EE807A5B
:10BA000050ED059AEBEE887A50ED09BAEBEE287A04
:10BA100010ED08BAEFEE897A50ED13FAEAEE097AE2
:10BA200010ED06AA10ED049AEFEEA87ADDED03FA08
:10BA3000D7ED008AEFEE887A9DED018AE8EE007A74
:10BA4000EFEE207AEEEE817AEEEE217AEDEE827A5A
:10BA5000EDEE227AECEE837AECEE237AEBEE847A4A
:10BA6000EBEE247AEAEE857AEAEE257AE9EE867A3A
:10BA7000E9EE267AE8EE877AE8EC017A7FF43AAFCD
:10BA800001EB840130468C398C2205B0BDEC108B63
:10BA9000BDE8F04308F050BCABAAAAAA0000000021
:10BAA000FE9493380643A439F4E15B3A73CAD33A5F
:10BAB00031FF163B13880E3BA0F195395A7383BBB7
:10BAC000D38029BCDFE688BCAE1E9FBCE67D64BC8B
:10BAD0000CD7623B41850A3D84B9973D87FCEF3D19
:10BAE000745B1D3EF1CF323E09F1A8095FED158A66
:10BAF00051ED237A1FED167A51ED22FA5FED176AA8
:10BB000011ED21FA1FED186A51ED20EA5FED195A87
:10BB100011ED1FEA1FED1A5A51ED1EDA5FED1B4AB7
:10BB200011ED1DDA1FED1C4A51ED1CCA5FED1D3AE7
:10BB300011ED1BCA1FED1E3A51ED1ABA5FED1F2A17
:10BB400011ED19BA1FED202A51ED18AA5FED211A47
:10BB500011ED17AA1FED221A51ED169A5FED230A77
:10BB60001FED230A1FED238AB0EE689AA7EE879A8D
:10BB7000063C09F1180901F11801F0EE497AEFEEDF
:10BB8000A67A07F1080751ED1BFA11ED0E9AEFEEB8
:10BB9000067A1FED2DFAEEEEA57A51ED18EAEEEEDB
:10BBA000057A1FED30EAEDEEA47A51ED17DAEDEEED
:10BBB000047A11ED16DAECEEA37A51ED15CAECEE2B
:10BBC000037A11ED14CAEBEEA27A51ED13BAEBEE43
:10BBD000027A11ED12BAEAEEA17A51ED11AAEAEE5B
:10BBE000017A11ED10AAE9EEA07A51ED0F9AEFEE6D
:10BBF000807A51ED1AFAEFEE887A51ED19FAEFEEEC
:10BC00008F7A51ED0CFAEEEE8E7A51ED0BEAEDEEF5
:10BC10008E7A51ED0ADAEDEE0F7A11ED09DAECEEDB
:10BC2000887A51ED08CAECEE007A11ED07CAEBEE06
:10BC3000A07A59ED0CBAEBEE017A11ED0DBAEAEEED
:10BC4000A17AEAEE027AE9EEA27AE9EE037AEBEE65
:10BC5000237AEFEE847AEEEEA47AEDEE857AEDEEBD
:10BC6000257AECEE867AECEE267AEBEE877A47EDD3
:10BC7000027A51ED267A51ED25EA51ED24DA11EDE3
:10BC800023DA51ED22CA11ED21CA51ED20BA11ED8E
:10BC90001FBA51ED1EAA11ED1DAA51ED1C9A11ED0E
:10BCA0001B9A51ED18FAE7EE878A51ED117AEEEE04
:10BCB000A68A51ED17EACDED037AEDEE868A51EDB5
:10BCC00016DA51ED0C7AEDEE258A11ED15DAECEE6F
:10BCD000858A51ED14CAECEE248A11ED13CAEBEEFD
:10BCE000848A51ED1ABAEBEE238A11ED19BAEAEE05
:10BCF000838A51ED10AAEAEE228A11ED0FAAE9EE2D
:10BD0000828A51ED0E9AE9EE218A11ED0D9AEBEE41
:10BD1000818A51ED0BBAEBEE208A11ED12BAEFEEEB
:10BD2000808A51ED0AFAEEEE888A51ED09EAEDEECD
:10BD30008F8A51ED08DAEDEE0E8A11ED07DAECEE9E
:10BD40008E8A19ED0CEA51ED05CAECEE0F8A11ED61
:10BD500004FA11ED03CAEBEE088A9DED038AE8EEC2
:10BD6000008AEAEEA08AEAEE018AE9EEA18AE9EE0B
:10BD7000028AE7EEA28AEBEE838AEFEEA38AEEEE6A
:10BD8000848AEDEEA48AEDEE058AEEEE258AECEECD
:10BD9000868AEFEE268AECEE078A47ED018A7FF469
:10BDA000A5AE6FE62DE9F0412DED108B0646980704
:10BDB00082B01746884640F03881B3F5C07F80F0E6
:10BDC0003981002B00F03181D6F8805101F1100447
:10BDD000284654F8102CC5F8C02040F80429B04279
:10BDE00038BF05F1BC00014654F80C5CC6F8800170
:10BDF000C0F8C05041F80459B14238BF00F1BC014D
:10BE0000084654F808CCC6F88011C1F8C0C040F804
:10BE100004C9B04238BF01F1BC00054654F8048C97
:10BE2000C6F88001C0F8C08045F80489B54201D247
:10BE300000F1BC05D5ED30FA9FED867ADFED847A0E
:10BE400095ED2FFADFED846AD5ED2EEA9FED836A3A
:10BE500095ED2DEADFED825AD5ED2CDA9FED815A72
:10BE600095ED2BDADFED804AD5ED2ACA9FED7F4AAA
:10BE700095ED29CADFED7E3AD5ED28BA9FED7D3AE2
:10BE800095ED27BADFED7C2AD5ED26AA9FED7B2A1A
:10BE900095ED25AADFED7A1AD5ED249A9FED791A52
:10BEA00095ED239ADFED780AD5ED228A9FED770A8A
:10BEB0009FED778AC6F88051EFEE877A043B04F154
:10BEC0001004D5ED20FAEFEE267A9FED73FAEEEE30
:10BED000867AD5ED1FEAEEEE257A9FED70EAEDEE5B
:10BEE000857AD5ED1EDAEDEE247A9FED6DDAECEE73
:10BEF000847AD5ED1DCAECEE237A9FED6ACAEBEE8B
:10BF0000837AD5ED1CBAEBEE227A9FED67BAEAEEA2
:10BF1000827AD5ED1BAAEAEE217A9FED64AAE9EEBA
:10BF2000817AD5ED1A9AE9EE207A9FED5A9AE8EED9
:10BF3000807AD5ED218AE8EE887ADFED5D8AEFEE32
:10BF40008F7AD5ED18FAEEEE8E7AD5ED17EAEDEE92
:10BF50008D7AD5ED16DAECEE8C7AD5ED15CAEBEECE
:10BF60008B7AD5ED14BAEAEE8A7AD5ED13AAE9EE0A
:10BF7000897AD5ED199AE9EEA87AD5ED129AEFEE05
:10BF8000A87AD5ED108AD5ED0FFAEEEE897A95ED07
:10BF90000E9AD5ED0DEAEDEE8A7A95ED0CAAD5ED67
:10BFA0000BDAECEE8B7A95ED0ABAD5ED09CAEBEE19
:10BFB0008C7AD5ED08BA95ED07CAEAEE8D7AD5ED03
:10BFC00006AA95ED05DAE9EE8E7A95ED11EAD5ED42
:10BFD000049AEEEE0F7A95ED02FA95ED01EAE8EE9D
:10BFE000887AEFEE807AE9EE207AEEEE817AEAEE58
:10BFF000217AEDEE827AEBEE227AECEE837AEBEEAA
:10C00000A37AECEE047AEAEEA47AEDEE057AE9EE94
:10C01000A57AD5ED035AE5EE867AEFEE267AEEEEB6
:10C02000077AE7EC017A7FF4D3AE02B0BDEC108B57
:10C03000BDE8F08106F1BC04C0222046009308F060
:10C040007BF908F1C001324607F13000009B34E073
:10C0500000000000C4A91DB9AB4792B9D4D7CAB932
:10C0600083E6A8B9F41C92388C4C673A8866063B84
:10C070003576563BA016833B4E80683B2269AB3A2F
:10C080005DFD40BBD2A20FBC60D873BCD4B19DBCD7
:10C09000C0E19EBC60CD0C3E31EE54BC3FE6BA3AE6
:10C0A000D4C7C33CD8B8573D719CAC3D63CFE93D84
:10C0B00099E8193E02F1CC04724614ED2FFA5FEDB7
:10C0C0001BBA5FED1D7A14ED2E8A1FED1D7A54ED1B
:10C0D0002DEA5FED1E6A54ED2C8A1FED1F6A14EDE8
:10C0E0002BEA5FED205A14ED2A9A1FED215A54EDE8
:10C0F00029DA5FED224A54ED289A1FED234A14ED08
:10C1000027DA5FED243A14ED26AA1FED253A54ED07
:10C1100025CA5FED262A14ED24CA1FED272A5FEDFC
:10C12000271A14ED22BA1FED281A54ED21AA5FED4B
:10C13000290A54ED20FA1FED2A0AEFEE2B7A02F1BC
:10C14000100E14ED23FAE8EE077A1FED2D8AEEEEBD
:10C15000A67A54ED1EEAE8EE867A5FED308AEEEEBE
:10C16000257A14ED1DEAE9EE057A1FED339AEDEE1E
:10C17000A47A54ED1CDAE9EE847A5FED369AEDEE9E
:10C18000237A14ED1BDAEAEE037A1FED39AAECEEFE
:10C19000A27A54ED1ACAECEE027A1FED3CCAEFEE19
:10C1A000217A14ED17FAEBEE017A1FED46BAEAEEAA
:10C1B000A07A5FED41AAEFEE807A54ED1FFAEFEE20
:10C1C000887A54ED0FFAEEEEA87A54ED16EAEEEE08
:10C1D000097A14ED19EAEDEEA97A54ED18DAEDEECC
:10C1E0000A7A14ED15DAECEE8C7A54ED14CAEEEE00
:10C1F0000B7A14ED0CEAEDEEAA7A54ED0BDAEFEEC1
:10C200002A7A14ED0EFAEEEE8B7A54ED0DEAEDEE8D
:10C210000C7A14ED0ADA14ED08CAECEE8A7A14ED01
:10C2200013AA54ED09CAEAEE297A54ED079ACDED26
:10C23000019A54ED12AA14ED06BA14ED04AA54EDB5
:10C24000039AEAEE897A14ED119A54ED05AAE9EE03
:10C25000287A54ED108A14ED029AE8EE887A54EDAB
:10C26000018A92ED2F8AEFEE807AEFEE207AEEEEE1
:10C27000817AEEEE217AEDEE827AEDEE227AECEE24
:10C28000837AECEE237ADDED013AE3EE847AEBEE8D
:10C29000247AEAEE857AEAEE257AE9EE867AE9EE04
:10C2A000267AE8EE877AE8EE2B7AE7EC017A874285
:10C2B0007FF400AFA3F130056A0700F1D38108F1E4
:10C2C000E0025FED9D8A51ED2F7A1FED9E7A51EDD0
:10C2D0002EFA5FED9F6A11ED2DFA1FEDA06A51ED68
:10C2E0002CEA5FEDA15A11ED2BEA1FEDA25A51ED98
:10C2F0002ADA5FEDA34A11ED29DA1FEDA44A51EDC8
:10C3000028CA5FEDA53A11ED27CA1FEDA63A51EDF7
:10C3100026BA5FEDA72A11ED25BA1FEDA82A51ED27
:10C3200024AA5FEDA91A11ED23AA1FEDAA1A51ED57
:10C33000229A5FEDAB0A1FEDAB0A1FEDAB8AB0EEA0
:10C34000689AA7EE879A083D02F1200201F12001C8
:10C35000F0EE497AEFEEA67A07F1080751ED29FAD7
:10C360001FEDB49AEFEE067A1FEDB5FAEEEEA57A60
:10C3700051ED26EAEEEE057A1FEDB8EAEDEEA47A6D
:10C3800051ED25DAEDEE047A1FEDBBDAECEEA37A7F
:10C3900051ED24CAECEE037A1FEDBECAEBEEA27A91
:10C3A00051ED23BAEBEE027A1FEDC1BAEAEEA17AA3
:10C3B00051ED22AAEAEE017A1FEDC4AAE9EEA07AB5
:10C3C00051ED219AEFEE807A51ED28FAEFEE887A5E
:10C3D00051ED27FAEFEE8F7A5FEDCBFAEEEE8E7A23
:10C3E00051ED1FEAEDEE8D7A51ED1EDAECEE8C7A0E
:10C3F00051ED1DCAEBEE8B7A51ED1CBAEAEE8A7A4A
:10C4000051ED1BAAE9EE897A51ED209AE9EEAF7A57
:10C4100051ED1A9AEEEEAF7A51ED18EAEDEE897A07
:10C4200051ED17DAECEE8A7A51ED16CAEBEE8B7A03
:10C4300051ED15BAEAEE8C7A51ED14AAE9EE8D7A37
:10C4400051ED199AE9EE8E7A51ED0C9AEEEE8F7A53
:10C4500051ED11EAEDEE887A51ED10DAECEE807ACA
:10C4600051ED0FCAEBEEA07A51ED13BAEAEE817AE4
:10C4700051ED0DAAEBEEA17A51ED12BAEBEE827AF4
:10C4800051ED0EBAEEEEA27A51ED0AEAEDEE837AA4
:10C4900051ED09DAECEEA37A52ED10CAEBEE847A94
:10C4A000EAEEA47A51ED0BAAE9EE857AEAEEA57AD6
:10C4B000EEEE867AEDEEA67AECEE877A47ED027A1A
:10C4C00051ED337A51ED32DA51ED31CA51ED30BAD6
:10C4D00051ED2FAA51ED2E9A51ED2BEAE7EE878A06
:10C4E00051ED2D7AEDEEA68A51ED2ADAECEE868A30
:10C4F00051ED29CAEBEEA58A51ED28BAEAEE858AFC
:10C5000051ED27AAE9EEA48A51ED269AE7EE848A36
:10C5100051ED2C7AE7EEA38A51ED257AEEEE838A6F
:10C5200051ED23EAEDEEA28A51ED22DAECEE828A99
:10C5300051ED21CAEBEEA18A51ED20BAEAEE818AD3
:10C5400051ED1FAAE9EEA08A51ED1E9AE7EE808A0E
:10C5500051ED247AE7EE888A51ED1D7AEEEE8F8A4E
:10C5600051ED1BEAEDEE8E8A51ED1ADAECEE8D8A72
:10C5700051ED19CAEBEE8C8A51ED18BAEAEE8B8AAE
:10C5800051ED17AAE9EE8A8A51ED169AE7EE898AEB
:10C5900051ED1C7AE7EEAF8A51ED067AEEEEAF8AE6
:10C5A00051ED15EA51ED12FAEDEE898ACDED01FA61
:10C5B000ECEE8A8A51ED14FA51ED11DA11ED109A70
:10C5C00051ED0FCA11ED0EAAEBEE8B8A51ED0DBAAB
:10C5D00011ED0CBAEAEE8C8A11ED0BCA51ED0AAAE4
:10C5E000E9EE8D8A11ED09DA52ED109AEEEE8E8A9F
:10C5F00051ED13EA11ED07EAEFEE8F8A51ED05FADE
:10C6000011ED04FAEEEE888A9DED018AE8EE008ACB
:10C61000EDEEA08AE9EE018AECEEA18AEAEE028A4A
:10C62000EBEEA28AEBEE038AECEE238AEAEE848A32
:10C63000EDEE248AE9EE858AEEEE258AE7EE868A1B
:10C64000EFEEA68AEFEE078A47ED018A7FF439AE56
:10C650003046BC39BC2202B0BDEC108BBDE8F041C5
:10C6600007F06ABE11ED2FFADFED7EBADFED7E7ABC
:10C6700011ED2E8A9FED7D7A51ED2DEADFED7C6A7A
:10C6800051ED2C8A9FED7B6A11ED2BEADFED7A5A92
:10C6900011ED2A9A9FED795A51ED29DADFED784AAA
:10C6A00051ED289A9FED774A11ED27DADFED763AC2
:10C6B00011ED26AA9FED753A51ED25CADFED742ADA
:10C6C00011ED24CA9FED732ADFED731A11ED22BA22
:10C6D0009FED721A51ED21AADFED710A51ED20FA9A
:10C6E0009FED700AEFEE2B7A8C46043D11ED23FA94
:10C6F000E8EE077A01F110019FED6B8AEEEEA67A63
:10C7000051ED22EAE8EE867ADFED688AEEEE257AD0
:10C7100011ED21EAE9EE057A9FED659AEDEEA47A36
:10C7200051ED20DAE9EE847ADFED629AEDEE237ABC
:10C7300011ED1FDAEAEE037A9FED5FAAECEEA27A22
:10C7400051ED1ECAECEE027A9FED5CCAEFEE217A43
:10C7500011ED1BFAEBEE017A9FED59BAEAEEA07AE1
:10C76000DFED58AAEFEE807A51ED23FAEFEE887AEA
:10C7700051ED13FAEEEEA87A51ED1AEAEEEE097ACF
:10C7800011ED1DEAEDEEA97A51ED1CDAEDEE0A7A13
:10C7900011ED19DAECEE8C7A51ED18CAEEEE0B7A47
:10C7A00011ED10EAEDEEAA7A51ED0FDAEFEE2A7AEA
:10C7B00011ED12FAEEEE8B7A51ED11EAEDEE0C7AF4
:10C7C00011ED0EDA11ED0CCAECEE8A7A11ED17AA12
:10C7D00051ED0DCAEAEE297A51ED0B9ACDED019A91
:10C7E00051ED16AA11ED0ABA11ED08AA51ED079AFA
:10C7F000EAEE897A11ED159A51ED09AAE9EE287A47
:10C8000051ED148A11ED069AE8EE887A51ED058A09
:10C810009CED008AEFEE807AEFEE207AEEEE817AE0
:10C82000EEEE217AEDEE827AEDEE227AECEE837A6C
:10C83000ECEE237ADDED013AE3EE847AEBEE247A36
:10C84000EAEE857AEAEE257AE9EE867AE9EE267A4C
:10C85000E8EE877AE8EE2B7AE0EC017A7FF402AF1B
:10C86000F6E600BFC4A91DB900000000AB4792B9AD
:10C87000D4D7CAB983E6A8B9F41C92388C4C673A6D
:10C880008866063B3576563BA016833B4E80683B58
:10C890002269AB3A5DFD40BBD2A20FBC60D873BC2D
:10C8A000D4B19DBCC0E19EBC31EE54BC3FE6BA3A67
:10C8B000D4C7C33CD8B8573D719CAC3D63CFE93D6C
:10C8C00060CD0C3E99E8193E2DE9F04F00F5427518
:10C8D000904685B02A46434604460F46FEF7FCFDC7
:10C8E000AD4B04F59166A3FB082043083246294668
:10C8F00004F5AA70FFF756FA04F5EA4C039701967F
:10C9000002950CF1300C00225CF8285CDCF8241055
:10C91000DCF828300DF1100909EB850BB8FBF1FAB2
:10C920005BF80C4C0AF1FF3966464FF0000B002A09
:10C9300000F03481132A00F0508256ED035A16EDB0
:10C94000011A16ED026AD6ED007A16ED052A56EDAB
:10C95000041A16ED065A56ED076A4F46BAF1000F53
:10C9600000F0148119F0010FF1EE454A9E464BD0BC
:10C97000E6EE815A9E4609F1FF37B4EC010A65EEF6
:10C98000E63AA6EEA76AE1EE243A26EE664A73EE90
:10C99000800AA7EEA44A31EE207A37EE021AB0EEF2
:10C9A000402A25EE013A73EE042A77EEA27A77EE5A
:10C9B000A17AF0EE431A65EE273AEEEC013A23E055
:10C9C000E6EE815A023F94ED012A65EEE63AA6EEC4
:10C9D000A76A041DE1EE243A26EE660A33EE824A87
:10C9E000A7EEA40A31EE041A31EE221A65EE012AEE
:10C9F00072EE800AF0EE621A37EEA07A77EE037AD2
:10CA000025EE273AAEEC013AE6EE815A2046A6EE34
:10CA1000A76A25EEE60AF0EC012AA1EE240A26EE2A
:10CA2000664A70EE220AA7EEA44A31EE207A37EE6B
:10CA3000021A25EE013A33EE042A77EE827A77EE77
:10CA4000A17A65EE271AEEEC011A002FB8D146ED57
:10CA5000035A06ED011A06ED026AC6ED007A46EDAC
:10CA6000052A06ED043ABBF1000F00F08A801CEDA8
:10CA7000082ABAF1000F7BD093ED000A60EE025A4B
:10CA800003EB8A041946E51AE1EC015A281FA1427A
:10CA9000C0F382066CD0BEB3012E2DD0022E25D05D
:10CAA000032E1DD0042E15D0052E0DD0062E05D038
:10CAB00093ED016A66EE024AE1EC014A91ED004A0B
:10CAC00024EE023AA1EC013AD1ED006A66EE821A38
:10CAD000E1EC011A91ED005A65EE027AE1EC017A7F
:10CAE00091ED001A61EE020AE1EC010AD1ED002A93
:10CAF00022EE827AA1EC017AD1ED003A23EE820A8D
:10CB0000A1EC010AA14233D0D1ED005A25EE826A90
:10CB10000B46A3EC016A91ED014AD3ED014A24EEE4
:10CB2000023A64EE821A83ED003A91ED035AD1ED98
:10CB3000047A91ED051AD1ED066AD1ED070AC1ED2F
:10CB4000021A65EE022A67EE823A21EE020A66EECA
:10CB5000825AC1ED032AC1ED043A81ED050AC1ED07
:10CB6000065A20EE827A2031A14201ED017ACBD122
:10CB70000132142A0CF1640C7FF4C6AE05B0BDE896
:10CB8000F08F20364FF0010B1C46D0E6B0EE613A34
:10CB9000F0EE422A5BE700BFABAAAAAA16ED036A31
:10CBA00016ED017A56ED025AD6ED006A16ED054AE9
:10CBB00056ED044A16ED065A16ED072ABAF1000F93
:10CBC00000F0FE80A2EE076A194609F00305E2EEC6
:10CBD000265A09F1FF3062EE064A62EE257AB1EE7E
:10CBE000450AF0EE643AB0EE671AD7EE003A96EED8
:10CBF000801AB4EC014AE1EC017A73EE842A74EEF7
:10CC0000810A37EE227A76EEA06AB9F1000F00F0C1
:10CC1000D780002D5CD0012D3BD0022D1CD0A2EE80
:10CC2000076A0138E2EE265A62EE064A22EE254AEB
:10CC3000F0EE641AB0EE445AD7EE001A96EE805A1F
:10CC4000B4EC013AA1EC014A71EE837A74EE853AB4
:10CC500037EE277A76EEA36AA2EE076A0138E2EE93
:10CC6000265A22EE061A62EE250AF0EE412AF0EE6E
:10CC7000604AD7EE002AD6EE804AB4EC014AE1ECD5
:10CC8000010A72EE841A31EE245A37EE217A76EEDA
:10CC9000856AA2EE076A0138471CE2EE265A62EE68
:10CCA000064A62EE257AB0EE643AF0EE673A97EE05
:10CCB000003AD6EE803AB4EC014AE1EC017A33EE68
:10CCC000041A74EEA30A37EE017A76EEA06A77D0E2
:10CCD000A2EE076AA6460F46E2EE265A0438103145
:10CCE00062EE061A22EE255AF0EE612AF0EE454A6F
:10CCF000D7EE002A451C04F11004D6EE804AFEEC63
:10CD0000017AA7EC015A32EEA73A71EEA43A37EE57
:10CD1000031A76EEA30AA2EE016AE2EE205A22EE90
:10CD2000067A22EE254AF0EE476AF0EE441AD1EE7A
:10CD3000006AD0EE801A14ED035A87ED004A77EEB0
:10CD4000212A76EE854A70EEA27A31EE241AE2EEBE
:10CD5000275AA2EE016A62EE250A22EE067AF0EE6A
:10CD6000603AB0EE474AD7EE803A91EE004A9EED27
:10CD7000013A41ED020A74EE036A77EE231A31EEAE
:10CD8000265A77EEA17AA2EE056AE2EE275A62EE03
:10CD9000064A22EE251AF0EE640AF0EE412AD5EE9C
:10CDA000000AD7EE802A14ED014A01ED011A30EE97
:10CDB000847A74EEA23A35EE077A77EEA36A87D1C9
:10CDC00006ED036A06ED017A46ED025AC6ED006AE9
:10CDD00006ED054A46ED044A45E616ED035A56EDC2
:10CDE000017A56ED024A96ED007A16ED054A56EDA7
:10CDF000046A16ED066A56ED075ABAF1000F00F004
:10CE00009F80A5EEA75A194609F00105B1EE462A02
:10CE100065EE856AE5EE874A09F1FF3EF0EE661A97
:10CE2000D7EE821AB4EC014A71EE843A25EEA40AD8
:10CE300074EE666A77EEA37AB0EE401AE2EE276AE5
:10CE400097EE021A76EEC02A76EE810A37EE207A45
:10CE5000E2EE072AE1EC012AB9F1000F70D005B328
:10CE6000A5EEA75A0EF1FF3EE5EE874A25EE856A4C
:10CE7000B4EC014AB0EE463A97EE823A65EEA43A37
:10CE800073EE041A74EE466A77EEA17AB0EE630A86
:10CE9000E2EE276A97EE020A76EEE32A36EE801A71
:10CEA00045E0A5EEA75A2746AEF1020EE5EE874A09
:10CEB00065EE850AB7EC016AB0EE604A97EE824AE9
:10CEC00065EEA41A74EE066A36EE603A77EEA67A3C
:10CED000F0EE613AA2EE273AD7EE023AA5EEA75A53
:10CEE00033EE230A33EE611A37EE007A65EE852AB7
:10CEF000A2EE071AF0EE620AD7EE820AA1EC011A3E
:10CF0000E5EE874A94ED014A30EE846A65EEA41A94
:10CF100074EE626A77EE867AB0EE613AE2EE276AE4
:10CF20003C1D97EE023A76EEE12A36EE831A37EE92
:10CF3000017A1EF10105E2EE072AE1EC012AB0D1E7
:10CF400006ED035A46ED017A46ED024A86ED007A77
:10CF500006ED054A46ED046A85E500BF2DE9F84F68
:10CF600004462DED028B00F53270B0EE408AFDF7DD
:10CF7000C7FC04F50040B0EE480A0430FDF7C0FCE1
:10CF800004F57D434FF07C521A6404F108052260D9
:10CF9000626004F1A806002129606960A960E96067
:10CFA00029616961A961E96129626962A962E9622D
:10CFB00029636963A963E96329646964A964E9640D
:10CFC0005035AE42E7D104F5A477C6EB070806F169
:10CFD000080BA8F108005F4531607160C0F3C20220
:10CFE00065D0FAB3012A33D0022A29D0032A20D0EF
:10CFF000042A17D0052A0ED0062A05D0CBF8001037
:10D00000CBF804100BF1080B0026CBF80060CBF82E
:10D0100004600BF1080B0021CBF80010CBF80410D2
:10D020000BF1080B0025CBF80050CBF804500BF1A6
:10D03000080B0020CBF80000CBF804000BF1080B24
:10D040004FF00009CBF80090CBF804900BF1080BDF
:10D050004FF0000ACBF800A0CBF804A00BF1080BAE
:10D060005F4524D00023CBF80030CBF80430CBF858
:10D070000830CBF80C30CBF81030CBF81430CBF8AC
:10D080001830CBF81C30CBF82030CBF82430CBF85C
:10D090002830CBF82C30CBF83030CBF83430CBF80C
:10D0A0003830CBF83C300BF1400B5F45DAD104F55A
:10D0B0007D4C0CF1540E00220A324FF0000B364921
:10D0C0004EF808BC142ACEF800B04EF804BC4EF856
:10D0D0000C1C4EF8101CCEF80CB0CEF814B0CEF8E4
:10D0E0000810CEF80410CEF810B0CEF820B0CEF86C
:10D0F00028B0CEF81C10CEF81810CEF824B0CEF818
:10D1000034B0CEF83CB0CEF83010CEF82C10CEF8BB
:10D1100038B0CEF848B0CEF850B0CEF84410CEF8C3
:10D120004010CEF84CB0CEF85CB0CEF864B0CEF87B
:10D130005810CEF85410CEF860B0CEF870B0CEF8DB
:10D1400078B0CEF86C10CEF86810CEF874B0CEF887
:10D1500084B0CEF88CB0CEF88010CEF87C10CEF82B
:10D1600088B0CEF898B0CEF8A0B0CEF89410CEF833
:10D170009010CEF89CB0CEF8ACB0CEF8B4B0CEF8EB
:10D18000A810CEF8A410CEF8B0B00EF1C80E93D10E
:10D19000BDEC028BBDE8F88FCDCCCC3D2DE9F04F36
:10D1A00085B000F5004C80460CF10409144600F5EA
:10D1B00032700E9A0293CDF80490FFF785FB21465A
:10D1C00001980E9ADB4DDC4FFFF77EFBD8ED005A3D
:10D1D0009FEDDA7ADFEDDA7A9FEDDA6ADFEDDA6A6F
:10D1E000E5EE877A08F57D4608F5EF4E06F1440B2B
:10D1F000BDEEE70A0EF1500AF8EEC00A10EE100A72
:10D2000037EEE01A07EB800321EE062AD3ED001A71
:10D21000FDEEC22A08F57E4112EE904A05EB840C21
:10D220009CED003A61EE833A0AF1040263EEA61A1D
:10D230005B4601F1D40692ED004ADFEDC44ADFED12
:10D24000C47A81EE846A03F13C095033B6EE007A69
:10D2500036EE065A66EE076A03ED145A43ED136A7A
:10D2600098ED000AB4EEE40AF1EE10FAD4BF002003
:10D27000012000EE900AB8EE601A61EEA71A03EDE5
:10D28000101AD2ED195A81EEA52A02F5C87261EE84
:10D29000A72A32EE023A62EE073A03ED0F3A43ED67
:10D2A0000E3A98ED004AB4EEE44AF1EE10FAD4BF1B
:10D2B0000021012106EE101AF8EE466A22EEA75A66
:10D2C00043ED0B6A12ED320AC2EE800A65EE271AB0
:10D2D00020EE871A70EEA07A03ED091A43ED0A7A60
:10D2E000D8ED005AF4EEE45AF1EE10FAD4BF00245F
:10D2F000012402EE104AF8EE422A43ED062A12ED0E
:10D30000193AC5EE033A33EEA34A23EE876A03EDDA
:10D31000054A03ED046AD8ED006AF4EEE46AF1EE22
:10D3200010FAD4BF4FF0000E4FF0010E04EE90EA59
:10D33000B8EE645AB34289ED045A7FF47CAF98ED9D
:10D34000010ADFED840ADFED7E1A9FED7E1ADFED24
:10D35000837AE0EE201A08F57D4C08F5A07930EECE
:10D36000477AFDEEE15AB0EEC72AF8EEE52A32EE32
:10D37000023A71EEE23AF0EE006A23EE814A9CED49
:10D38000146ADCED194ABDEEC40A36EEC35A15EE36
:10D39000900A10EE101A65EE031A74EEC60A07EB37
:10D3A000800705EB8105A0EEA76AC44695ED001A3B
:10D3B00097ED007A76EEE15A27EE012A65EEA12A72
:10D3C000B1EE003A22EE035A66EE223A77EE857A03
:10D3D00013EE904AB7EE004A4CF8A84F74EE624A3A
:10D3E000F5EEC07AF1EE10FACCED014A00F1EB83D4
:10D3F000DFED596AF4EEE67AF1EE10FAD8BFF0EEFE
:10D40000676A0CF1080250E0DFED535AF4EEE57A5A
:10D41000F1EE10FAD8BFF0EE675AFDEEE56A9FED27
:10D420004E0A16EE90EA0EF1010303EB83000EEBB9
:10D430008E0508EB800608EB850106F57D4701F5B2
:10D440007D4494ED147A97ED144AF8EEE60A37EE2F
:10D45000C02A74EE471A35EEE01AB5EEC02AF1EE96
:10D4600010FA02F10802A1EE817A07DBB7EE003A6A
:10D4700032EE036AC3EE063A27EE237A77EE857A18
:10D4800067EE225AF5EEC07AF1EE10FAC2ED005ABC
:10D49000C2ED014A4BD4DFED306AF4EEE67AF1EEEC
:10D4A00010FAD8BFF0EE676A0832BDEEE66A9FED6B
:10D4B0002A0A16EE10EA0EF1010303EB83060EEBC7
:10D4C0008E0708EB860008EB870100F57D4501F526
:10D4D0007D4494ED147AD5ED140AB8EEC61A37EEF1
:10D4E000C06A70EEC75A76EEC16AB5EEC06AF1EE58
:10D4F00010FAA5EEA67A07DBB7EE002A36EE026A2E
:10D5000082EE063A27EE037A67EE223A4A4577EE34
:10D51000857AC2ED003AC2ED014A25D0F5EEC07A17
:10D52000F1EE10FA7FF570AFDFED0C5A75E7DFED25
:10D530000B6AB9E7E4160208E0120208000090C284
:10D5400000000043000080430000A04252B87E3F2C
:10D550006744A13F000040C2CCFF9741000000009B
:10D56000BD1B8F40CDCCCC3D0E9DCDF80C800AF17B
:10D570004C0E0BF1100608F5A47A08F108074FF0DD
:10D580000009DEF80030D6ED002ADEF8042056ED62
:10D59000027AB5FBF3F805EE108AF5EE402AB8EEF4
:10D5A000450AF1EE10FAB7EE004A84EE004A0EF595
:10D5B000FA4B08F1FF30DBF840B013BF1FED190A3A
:10D5C00016ED040A16ED036AB0EE406AB8F1000FDA
:10D5D00000F0F682F2EC014A5FED1F1A5FED210ABE
:10D5E00024EEA11A5346F0EEC15A75EEE76A00F038
:10D5F0000304F4EEE06AF1EE10FAD4BFB0EE462A6E
:10D60000B0EE402AE6EE827AA8F10201F4EE607AEA
:10D61000F1EE10FAC8BFF0EE670AE3EC017A0028D9
:10D6200000F0DC80002C60D0012C3DD0022C1CD0FE
:10D63000B2EC013A23EE217A0139F0EEC73A73EEEB
:10D64000E72AF5EEC02AF1EE10FAD4BFB0EE465A42
:10D65000B0EE405AE2EE857AF4EE607AF1EE10FA1E
:10D66000C8BFF0EE670AE3EC017AF2EC014A5FED25
:10D67000441A24EEA11A0139F0EEC15A75EEE76A98
:10D68000F5EEC06AF1EE10FAD4BFB0EE462AB0EE65
:10D69000402AE6EE827AF4EE607AF1EE10FAC8BF24
:10D6A000F0EE670AE3EC017AB2EC013A1FED547A2E
:10D6B00063EE073A0139F0EEE32A72EEE74AF5EE3F
:10D6C000C04AF1EE10FAD4BFB0EE465AB0EE405A5E
:10D6D000E4EE857AF4EE607AF1EE10FAC8BFF0EE6F
:10D6E000670A481CE3EC017A78D01446F4EC011A7E
:10D6F0001FED651A61EE815A1846F0EEE56A36EEC6
:10D70000E72A1032B5EEC02AF1EE10FAD4BFB0EE1F
:10D71000463AB0EE403AE2EE037A04391033E0ECD8
:10D72000017A94ED007A67EE013AF4EE607AF0EE59
:10D73000E32A32EEE75AF1EE10FAB5EEC05AC8BF4E
:10D74000F0EE670AF1EE10FAD4BFF0EE464AF0EEC2
:10D75000404AE5EE247AC0ED007A52ED021A61EEFD
:10D76000815AF4EE607AF0EEE56A36EEE72AF1EEE1
:10D7700010FAB5EEC02AC8BFF0EE670AF1EE10FA53
:10D78000D4BFB0EE463AB0EE403AE2EE037A43ED53
:10D79000027A12ED017A27EE011AF4EE607AF0EEC9
:10D7A000C13A73EEE72AF1EE10FAF5EEC02AC8BFCF
:10D7B000F0EE670AF1EE10FAD4BFB0EE465AB0EEC2
:10D7C000405AE2EE857AF4EE607AF1EE10FAC8BFC4
:10D7D000F0EE670A481C43ED017A86D116ED010A86
:10D7E0001FEDA06A46ED027A70EEC00AF6EE007AEE
:10D7F000F5EEC00AF1EE10FAD8BFF0EE467AA0EED0
:10D80000A70A06ED010AD7ED011ADCED014A97EDF2
:10D81000002ADCED005A34EEE13A75EEC26A23EEDE
:10D82000046A26EE841AB8F1000F00F0998052467F
:10D83000B2EC014A9BED007AF0EE423AE4EE213A76
:10D840000BEB88045B46CBEB040127EE235A081F41
:10D85000A3EC015AA34231EE867A72EE017AC0F34C
:10D8600081017DD0B1B3012922D0022910D09AEDD7
:10D87000010ADBED010AF0EE671AE0EE071A043246
:10D8800037EE067A20EEA12A77EE817AA3EC012A00
:10D89000F2EC015A93ED003AF0EE676AE5EE876A22
:10D8A00077EE817A63EE263A37EE067AE3EC013AB8
:10D8B000F2EC012A93ED005AB0EE670AA2EE870A55
:10D8C00077EE817A65EE001A37EE067AE3EC011AFC
:10D8D000A34245D09046F8EC014A93ED002AF0EEC1
:10D8E000675AE4EE875A9B46103377EE813A22EE70
:10D8F000254A77EE066AABEC014AD2ED012A13ED18
:10D90000035A9BED010AF0EE630AE2EEA60A10321A
:10D9100073EE817A65EE204A36EE867ACBED004AC8
:10D9200098ED012A53ED016AF0EE675AE2EE075ACC
:10D9300077EE812A20EE254A77EE063A03ED024A79
:10D9400012ED015AB0EE620AA5EE230AA34233EEAD
:10D95000867A66EE801A72EE817A43ED011AB9D1A9
:10D9600007F1A00494E8030009F10109B9F1140FCB
:10D9700087E803000EF1640E06F114060CF1080CA2
:10D9800007F108077FF4FDAD0DF1040C0E9A9CE839
:10D990000301FDF7BFF90E9B5A1E002B00F00D810D
:10D9A000029F9FED8A6AB7EC011ADFED894A9FED6D
:10D9B000892A08F57D4000F1400521EE067AD5ED73
:10D9C000007AF0EEC76A76EEE75AB7EE003AF5EE67
:10D9D000C05AF1EE10FAC8BFB0EE642AE5EE827AC2
:10D9E00002F00101F4EEC37AF1EE10FAC5ED007A0F
:10D9F00001D983EE273A02F1FF3967EE033A9FED32
:10DA0000764AB3EE0B5A63EE842AF0EE450AB2EE84
:10DA1000020AE2EEA20A62EE801A22EEA01AA2EE3A
:10DA2000A15A81EE056A07ED016A002A00F0C5805F
:10DA3000002941D0F7EC014A9FED642AD5ED007A28
:10DA40009FED633ADFED635A9FED635A24EE827ACD
:10DA5000F7EE006AF0EEC73A33EEE74AF3EE0B0A50
:10DA6000B5EEC04AF1EE10FAC8BFF0EE435AE4EE4C
:10DA7000257A09F1FF39B0EE601AF4EEE67AF1EE9C
:10DA800010FA88BFC6EEA76A19F10104F2EE021A75
:10DA900067EE262AC5ED007A22EE850AA0EE001A6E
:10DAA00020EE216A60EE014AE0EE060A84EEA02A2A
:10DAB00007ED012A00F081803E46B6EC013ADFED29
:10DAC000437A95ED007ADFED423ADFED425A9FED61
:10DAD000420ADFED3E0ADFED3E1A9FED3E1A23EECD
