:020000040800F2
:1000000000000220C1370008A1070008A50700086A
:10001000A9070008AD070008B107000800000000AC
:10002000000000000000000000000000B50700080C
:10003000B907000800000000BD070008A508000877
:100040000D3800080D3800080D3800080D3800087C
:100050000D3800080D3800080D3800080D3800086C
:100060000D3800080D3800080D3800080D3800085C
:100070000D3800080D380008111D00080D38000863
:100080000D3800080D3800080D3800080D3800083C
:100090000D3800080D3800080D3800080D3800082C
:1000A0000D3800080D3800080D3800080D3800081C
:1000B0000D3800080D3800080D3800080D3800080C
:1000C0000D3800080D3800080D3800080D380008FC
:1000D0000D3800080D3800080D3800080D380008EC
:1000E0000D3800080D3800080D3800080D380008DC
:1000F0000D3800080D3800080D3800080D380008CC
:100100000D3800080D3800080D3800080D380008BB
:100110000D3800080D3800080D3800080D380008AB
:100120000D3800080D3800080D3800080D3800089B
:100130000D3800080D3800080D3800080D3800088B
:100140000D3800080D3800080D3800080D3800087B
:100150000D3800080D3800080D3800080D3800086B
:100160000D3800080D3800080D3800080D3800085B
:100170000D3800080D3800080D3800080D3800084B
:100180000D3800080D3800080000000000000000D5
:10019000844641EA000313F003036DD1403A41D392
:1001A00051F8043B40F8043B51F8043B40F8043B51
:1001B00051F8043B40F8043B51F8043B40F8043B41
:1001C00051F8043B40F8043B51F8043B40F8043B31
:1001D00051F8043B40F8043B51F8043B40F8043B21
:1001E00051F8043B40F8043B51F8043B40F8043B11
:1001F00051F8043B40F8043B51F8043B40F8043B01
:1002000051F8043B40F8043B51F8043B40F8043BF0
:1002100051F8043B40F8043B51F8043B40F8043BE0
:10022000403ABDD2303211D351F8043B40F8043B80
:1002300051F8043B40F8043B51F8043B40F8043BC0
:1002400051F8043B40F8043B103AEDD20C3205D390
:1002500051F8043B40F8043B043AF9D2043208D088
:10026000D2071CBF11F8013B00F8013B01D30B88FA
:1002700003806046704700BF082A13D38B078DD0D8
:1002800010F003038AD0C3F10403D21ADB071CBFAA
:1002900011F8013B00F8013B80D331F8023B20F814
:1002A000023B7BE7043AD9D3013A11F8013B00F84D
:1002B000013BF9D20B7803704B7843708B788370D5
:1002C000604670472DE9F04F83B0044617469D48BD
:1002D000019100F0ADFE002F00F018829A49B4F9A8
:1002E00000300D68B80005FB03F60423021F8342AB
:1002F0004FEA2638C2F3820608F30F09A4F80090EB
:1003000000F0CB80002E5DD0012E4DD0022E40D0CB
:10031000032E32D0042E25D0052E17D0062E0BD05A
:100320000D68B4F904A005FB0AF34FEA233B082348
:100330000BF30F0CA4F804C00E6834F903E006FBBD
:100340000EF2151305F30F06E652043334F9038059
:100350000D6805FB08F94FEA293A0AF30F0B24F858
:1003600003B0043334F903C00E6806FB0CFE4FEAF9
:100370002E3202F30F05E552043334F903800E6880
:1003800006FB08F94FEA293A0AF30F0B24F803B0E9
:10039000043334F903C00D6805FB0CFE4FEA2E321E
:1003A00002F30F06E652043334F903800D6805FBAF
:1003B00008F94FEA293A0AF30F0B24F803B0043383
:1003C00083426AD00E6834F903E0D1F800B0D1F866
:1003D00000C00D68D1F800A0D1F80090D1F80080DD
:1003E00006FB0EF2161303F1040E06F30F02E2529F
:1003F00034F90E600BFB06F24FEA223B0BF30F06BB
:1004000024F80E6003F1080E03F10C0634F90E20F7
:100410000CFB02F2121302F30F0224F80E2034F93F
:1004200006B0D1F800C005FB0BF54FEA253E03F1FD
:10043000100B0EF30F02A25334F90B600AFB06F502
:1004400003F1140E4FEA253A0AF30F0224F80B20A9
:1004500034F90EB009FB0BF903F118054FEA293600
:1004600006F30F0224F80E2034F905A008FB0AF861
:1004700003F11C0B4FEA283E0EF30F0924F80590F8
:1004800034F90B6020330CFB06FC83424FEA2C3519
:1004900005F30F0224F80B2094D134F904ABDFF8F4
:1004A000AC8034F9025CD8F80000D8F80460D8F8C1
:1004B0000830D8F80C10BAF1000FB8BFCAF1000A22
:1004C000002DB8BF6D42C0EB0A0BC6EB050EBEF1A6
:1004D000000FD4BF0D461D46BBF1000FD4BF8946A7
:1004E00099467A1E09FB0BFC05FB0EF706EBE73677
:1004F00000EBEC3502F0010A201D571E002A75D0D2
:10050000BAF1000F24D030F904EC30F902BCBEF18E
:10051000000FB8BFCEF1000EBBF1000FB8BFCBF19A
:10052000000BC5EB0E09C6EB0B0CB9F1000FD4BFE5
:100530008E469E46BCF1000FD4BF8A469A46013FC4
:1005400047E000BF440F002000000020540F0020AF
:1005500030F904CC30F902AC30F904EBBCF1000FF7
:10056000B8BFCCF1000CC5EB0C0BBAF1000FB8BF53
:10057000CAF1000AC6EB0A09BBF1000FD4BF8C46D2
:100580009C460CFB0BFBB9F1000FD4BF8A469A4680
:1005900030F902CC0AFB09F9BEF1000FB8BFCEF169
:1005A000000E06EBE93605EBEB35BCF1000FB8BFEA
:1005B000CCF1000CC5EB0E09C6EB0C0CB9F1000F29
:1005C000D4BF8E469E46BCF1000FD4BF8A469A46E1
:1005D000023F0EFB09FBB7F1FF3F0AFB0CF905EBED
:1005E000EB3500F1040006EBE936B1D16A48019B16
:1005F0000168C8F80460C8F8005003F1040E02F066
:10060000010634F804AC002900F083804F1E076017
:1006100054F8041C4EF8041C0EF104030434551E57
:10062000002A73D0002E68D0026834F804EC5A4EC9
:10063000002A00F09080571E376054F8042C43F8CD
:10064000042C013D6A1C04F1040403F1040354D199
:100650005CE0524AD2F8886CD2F88C7C06F1FF3903
:100660004BF30B1AC7EB09080AF5006CC8F3090134
:100670001FFA8CFE09B904261670D2F88C1C01F101
:10068000010B02EB4109CBF30907C2F88C7CA9F8F6
:1006900088E454F8046C026843F8046C691E04335F
:1006A00034F8045B3C4F002A52D13C4AD2F8886CA3
:1006B000D2F88C7C06F1FF3A45F30B18C7EB0A051C
:1006C00008F5006CC5F309071FFA8CFE0FB9042664
:1006D0001670D2F88C5C05F1010B02EB4509CBF3E7
:1006E0000907C2F88C7CA9F888E454F8042C43F874
:1006F000042C043404334D1E41B1076834F804BCA3
:10070000254E002FA5D0791E3160C2E703B0BDE8A9
:10071000F08F2249D1F8885CD1F88CCC6B1E4AF35B
:100720000B18CCEB030B08F50069CBF309051FFA96
:1007300089FA0DB904270F70D1F88C3C5F1C01EBCE
:100740004308C7F3090CC1F88CCCA8F888A45FE76C
:10075000561E3E60C9E7114AD2F8881CD2F88C7C3C
:1007600001394EF30B1BC7EB01090BF5006AC9F306
:1007700009071FFA8AF80FB904261670D2F88C1CE4
:1007800001F1010C02EB410ECCF30907C2F88C7C9D
:10079000AEF8888451E700BF04000020200200204A
:1007A000704700BFFEE700BFFEE700BFFEE700BFE7
:1007B000FEE700BF704700BF704700BF704700BF33
:1007C00038B5344800F01EFD334B344958681A6878
:1007D0000C689042A8BF0246B2F5005FA2F5005532
:1007E000C4F3C01CA5BF40F255146543AD002D12E3
:1007F000002D47DBB5F5804F11DB264BA5F580407A
:100800006FEAA012FF2500245A701D709C70244AC4
:100810001578032D12D8DFE805F0222B150A1D4BA1
:10082000A811FF22002518705A709D70EFE7002074
:10083000FF21D8701870987019715970154800F020
:10084000ABFC38BD0022CCF10004FF251148DC7060
:100850001A715A709A701D7000F09EFC38BDCCF170
:100860000002D5B20B48DD701D7100F095FC38BD5B
:100870000868002440F3401106481971DC7000F04C
:100880008BFC38BD034B0024E80958701C709C7029
:10089000BDE700BF3C0F0020540F00201869002066
:1008A000380F00200E4A0F49108938B50E4B0F4CF7
:1008B0001D684FEA600C0CFB0CFE4FEAAE320135AE
:1008C00020461D600A6000F0C3FC23787F2B02D114
:1008D000074801240470BDE83840FFF771BF00BF2E
:1008E000440F00200000002018690020640F002041
:1008F0000C2900202DE9F0419E4C0646884601F067
:10090000BDFFF32001F0CAFF2368B3F1006F00F0D0
:10091000D280994A2068904200F0D6809749256895
:100920008D4200F0DA80964F2368BB4200F0DE80F3
:10093000944A2068904200F0E280934925688D42F5
:1009400000F0E680914F2368BB4200F0EA80904AB5
:100950002068904200F0EE808E4925688D4200F0BC
:10096000F2808D4F2368BB4200F0F6808B4A2068EE
:10097000904200F0FA808A4925688D4200F0968006
:10098000B8F1000F00F0908008F1FF3CCCF3820733
:1009900020680025002F7DD0316801F0F5FF206828
:1009A00004252844A84520607ED9012F72D0022F4B
:1009B0002AD0032F21D0AF4218D0052F0FD0062FF9
:1009C00006D0715901F0E0FF206828442060082516
:1009D000715901F0D9FF2368181D04352060715941
:1009E00001F0D2FF2268101D04352060715901F01A
:1009F000CBFF2068043004352060715901F0C4FF3A
:100A00002168081D04352060715901F0BDFF276879
:100A1000381D043520603DE0B15801F0B5FF05F107
:100A2000080C206856F80C100430206001F0ACFF70
:100A3000276805F10C023B1D1846B158236001F0F0
:100A4000A3FF216805F110070A1D1046F159226025
:100A500001F09AFF206805F11401031D1846715832
:100A6000236001F091FF276805F1180C3A1D56F834
:100A70000C102260104601F087FF206805F11C0170
:100A8000031D18467158236001F07EFF2768381D4A
:100A900020352060715901F077FF23682A1D191D48
:100AA000904508462160B7D8BDE8F0810221582062
:100AB00001F02EFF64E70020022101F029FF2E4AF9
:100AC000206890427FF42AAF0221082001F020FF25
:100AD0002A4925688D427FF426AF1020022101F0BB
:100AE00017FF274F2368BB427FF422AF1820022153
:100AF00001F00EFF234A206890427FF41EAF0221CE
:100B0000202001F005FF204925688D427FF41AAFAF
:100B10002820022101F0FCFE1C4F2368BB427FF419
:100B200016AF3020022101F0F3FE194A20689042EE
:100B30007FF412AF0221382001F0EAFE1549256842
:100B40008D427FF40EAF4020022101F0E1FE124FF2
:100B50002368BB427FF40AAF4820022101F0D8FE8F
:100B60000E4A206890427FF406AF0221502001F027
:100B7000CFFE00E7680F002000400008008000085A
:100B800000C000080000010800000208000004087E
:100B9000000006080000080800000A0800000C0811
:100BA00000000E08F0B585B001A8002100F046FA5B
:100BB0001D481E4F1E4E00F05FFA1E4B02220024FD
:100BC0001046012144259D60DA601C605C600D4682
:100BD00002F020FC02A938468DF80C408DF80E403A
:100BE0008DF80D4002958DF80F5002F043FA12482F
:100BF00000F010FB2946384602F088FB011B18BFA5
:100C0000012130464BF6803200F0B0FE30210B4A15
:100C1000304600F0D5FE0A4800F040F901A800F087
:100C200015FA05B0F0BD00BF3C0F002000040240E3
:100C30006C0F0020540F0020640F0020C502000834
:100C4000440F0020F8B5164D164C174E284644F6B2
:100C5000206101F085FB0822134620464FF0005129
:100C600001F0A0F8D4F8883CC4F88C3C0F48104A36
:100C7000D4F8107D0F49C4F8147D4FF0100C0023F8
:100C800085F80CC1A4F88434A3602370A3612361A8
:100C90002B70A5F80E31338003701160F8BD00BFD2
:100CA000F82700202002002010690020380F0020C3
:100CB000680F0020008000082DE9F04F83B0FFF797
:100CC000C1FFFFF76FFF6A48022102F01FFBD0B996
:100CD000684C694F2278DFF8C081684D654B042A63
:100CE0002FD14FF0010A0026D4F8140DD4F8103D8E
:100CF000DFF880E1C21A530611D0BAF1000F11D10A
:100D00005F48002E3BD05F4800F0D6FE5E4800F002
:100D100075F901F027FC5D4801F05CFCFEE7BAF1D3
:100D2000000F08D002210020397028702B78002B8A
:100D3000FCD0FFF787FF002EE5D122784D4B042A27
:100D4000CFD0D3F88C0CD3F8881C461AC6F309020E
:100D50001F2A40F28A80D4F88C1CD4F8886C454B4A
:100D6000C6EB0109C9F309021846002A7DD019789B
:100D7000002972D0012974D001F03EF9EBE7DEF8CA
:100D8000101D4A1C0EEB010B02F07F039BF8901C18
:100D9000CEF8103D01F044FBA0F1020CBCF1030FB2
:100DA000A2D8DFE80CF00435350201269CE7B8F83C
:100DB0000090DFF8CCB0364809F03F0E0BF101018E
:100DC00001234FF4807200EB0E203B70FFF7E0F937
:100DD00009F101018AB2A8F8002012F03F021AD0EE
:100DE00000232C49D4F810CD8BF8003010220320BA
:100DF000ABF80E31C4F87C34A4F884348BF80C21A1
:100E0000C4F814CD2070C4F87814C4F874146BE7D7
:100E10004FF0010A68E7184B1D48032119704FF481
:100E200080410192FFF766FDD4F8882CC4F88C2C21
:100E3000D4F8103D019A8BF800204FF010090220E1
:100E4000ABF80E21A4F88424A260A2612261C4F848
:100E5000143D8BF80C91207046E7184601F06AF8B3
:100E600079E7184601F094F875E74FF0000A3AE781
:100E70000004024020020020380F00200C2900202E
:100E8000F82700206C0F0020440F0020008000088D
:100E90001029002000FCFFFF106900202DE9F04F11
:100EA00001219DB006464FF4800002F0B3FA012004
:100EB000014602F0AFFADFF83C914C4D4FF48070E0
:100EC0000121002402F0C2FA4FF00308FF2301A918
:100ED0004748019308274FF4006A8DF80B408DF8BE
:100EE00008804FF4806B02F0C5F8DFF80CC10F9654
:100EF0004FF4005E01264FF400334FF480724846F1
:100F00000DA9CDF838C0CDF854E0179316920D9482
:100F10001094129418941A941B941197CDF84CB015
:100F2000CDF850A0199601F0F1FD4846314601F088
:100F300029FE4FF470624FF4403103A806920491E9
:100F40000394059401F00AFC284607A9CDF82CA0CB
:100F500007948DF820608DF821400A9409948DF84B
:100F6000307001F0CDFB284631463246072301F0B0
:100F700017FC022128460A46072301F011FC2846E7
:100F800042460421072301F00BFC28464146042277
:100F9000072301F005FC052128460A46072301F036
:100FA000FFFB062128460A46072301F0F9FB07222A
:100FB00028462146134601F0F3FB07210B463A462B
:100FC000284601F0EDFB2846314601F04DFC28464D
:100FD000314601F0DBFB2846314601F03BFC284658
:100FE00001F032FC1DB0BDE8F08F00BF00200140D1
:100FF00000000240106402404C20014010B50A4C31
:101000000A48002101F0BEFD2046002101F02CFC21
:101010002046002101F0BAFB2046002101F01AFC15
:10102000BDE8104001F05EBB0020014010640240AA
:10103000014801F009BC00BF0020014001B9704720
:101040004FF000604FF4004101F0BEBC074B084870
:10105000084A10B4F0245A60002180F82340072287
:1010600099605DF8044B1A60704700BF10E000E023
:1010700000ED00E03F9002002DE9F04301218BB02C
:101080000646042002F0C6F90220012102F0C2F94E
:10109000DFF800913D4D04200121002402F0C8F941
:1010A0000127302369463A4800934FF002088DF833
:1010B00004708DF806408DF805408DF8074001F06A
:1010C000D9FF694648464FF4E07200928DF8064019
:1010D0008DF805408DF807408DF8048001F0CAFFB7
:1010E00048464246062102F01DF94846424607217D
:1010F00002F018F942464846082102F013F902A806
:1011000002F038FAFF2302A928460393ADF80840FD
:10111000ADF81040ADF80A408DF8124002F0DAF94F
:1011200005A802F023FB6022284605A9ADF814208B
:10113000ADF816700794ADF82040ADF8244002F0E9
:1011400043FA2846082102F01BFB284605A902F0B5
:101150007DFA2846082102F01DFB284605A902F069
:10116000BDFA2846082102F021FB2846394602F044
:101170000BFA2846394602F017FA34707470B470CE
:10118000F470347174710BB0BDE8F0830008004056
:10119000000802400004024010B5184B0278DA63E0
:1011A000044640785863A178996394F805C0E378C1
:1011B0000CF1100E5FFA8EF2FF2B627115D09A427D
:1011C0002CBF002201220E48102102F0A5F8207940
:1011D000FF280CD0627982422CBF002201220848ED
:1011E0002021BDE8104002F097B80122EBE7012270
:1011F00003482021BDE8104002F08EB800080040EE
:10120000000802400023037043708370C3700371B1
:10121000704700BF10B5012182B00446022002F0E1
:10122000F9F8022100230122009108488DF80430CA
:1012300069468DF806308DF805308DF8072001F0ED
:1012400019FFFF20207002B010BD00BF0004024053
:1012500038B5057804466A0002210348D5B202F089
:1012600055F82843207038BD000402402DE9F041B4
:101270002A4C2B4F82B00620012102F0CBF8022528
:101280004FF440630026204669464FF00108009362
:101290008DF804508DF805508DF806808DF80760A4
:1012A00001F0E8FE20460A21042202F03BF8204625
:1012B0000B21042202F036F84FF4704220466946B2
:1012C00000928DF804508DF805508DF806608DF869
:1012D0000760402501F0CEFE69463846009501F0D2
:1012E000C9FE20460C21052202F01CF820460D21E3
:1012F000052202F017F820460F21052202F012F80D
:1013000020460E21052202F00DF83846062105225E
:1013100002F008F8404602B0BDE8F0810004024047
:1013200000080240F0B5154C85B001214FF4800053
:1013300002F07EF8204601F085FD04A9104B41F82B
:10134000103D4FF480624FF4804C204669460027E0
:101350004BF6FF763325ADF80A20ADF80CC0ADF89A
:101360000470ADF80660ADF8085001F0A1FD20460C
:10137000012101F017FE012005B0F0BD005800402A
:10138000A086010070B5002084B014460E4602F01D
:101390003BF8002001F0E8FF4BF680339C420CD074
:1013A0004AF64440844261D0B4F5FA4F64D03549DE
:1013B0008C4255D0002004B070BD4FF481700321E1
:1013C00001F0C8FF012001F0CFFF3B2002F068F8D8
:1013D0004FF4805510BB3B2002F062F8F0B93B207F
:1013E00002F05EF8D0B93B2002F05AF8B0B93B20C9
:1013F00002F056F890B93B2002F052F870B93B2049
:1014000002F04EF850B93B2002F04AF830B93B20C8
:1014100002F046F810B9083DDDD1CBE74FF480402B
:10142000012102F005F8184801F0D8FB00220294CF
:10143000ADF80220ADF80420ADF80C200EB14FF449
:10144000007669461048ADF80060ADF8066001F01E
:101450002DFC69460D4801F0BFFC012004B070BDB1
:1014600040F28910042101F075FFABE740F20F1044
:10147000062101F06FFFA5E74FF4D570042101F0BC
:1014800069FF9FE70077010000380040003400400A
:1014900070B573480E464FF40031154601F0CCFD8F
:1014A0004FF4961498B34FF400316D4801F0C4FD29
:1014B0004FF4003158B36A4801F0BEFD4FF40031DB
:1014C00028B3674801F0B8FD4FF40031F8B1644823
:1014D00001F0B2FD4FF40031C8B1614801F0ACFD3C
:1014E0004FF4003198B15E4801F0A6FD4FF4003191
:1014F00068B15B4801F0A0FD4FF4003138B15848A5
:1015000001F09AFD18B1083CCDD1002070BD5448BF
:10151000012101F057FD5248524901F07FFD4FF47F
:10152000805450BB4F494E4801F078FD4D4920BBD7
:101530004B4801F073FD4B49F8B9494801F06EFD85
:101540004849D0B9464801F069FD4649A8B9444820
:1015500001F064FD434980B9414801F05FFD414914
:1015600058B93F4801F05AFD3E4930B93C4801F0B6
:1015700055FD10B9083CD5D1C7E7394834210022C0
:1015800001F040FD3648384901F048FD4FF48054E1
:1015900050BB3549324801F041FD334920BB30484A
:1015A00001F03CFD3049F8B92D4801F037FD2E49D6
:1015B000D0B92B4801F032FD2B49A8B9284801F0D9
:1015C0002DFD294980B9264801F028FD264958B942
:1015D000234801F023FD244930B9214801F01EFDC4
:1015E00010B9083CD5D190E7C5F3002141EA460087
:1015F000C1B21B4801F010FD19481C4901F00EFD55
:101600004FF48054002833D11849154801F006FDE5
:10161000164968BB124801F001FD144940BB10484F
:1016200001F0FCFC114918BB0D4801F0F7FC0F4913
:10163000F0B90B4801F0F2FC0C49C8B9084801F0B8
:10164000EDFC0A49A0B9064801F0E8FC074978B961
:10165000034801F0E3FC58B9083CD5D155E700BF79
:1016600000580040010003008200070080000700CE
:10167000E9B2364801F0D0FC3448354901F0CEFCDF
:101680004FF4805650BB3249304801F0C7FC304916
:1016900020BB2E4801F0C2FC2D49F8B92B4801F0BF
:1016A000BDFC2B49D0B9294801F0B8FC2849A8B99C
:1016B000264801F0B3FC264980B9244801F0AEFC6D
:1016C000234958B9214801F0A9FC214930B91F48E4
:1016D00001F0A4FC10B9083ED5D116E71B481D49FE
:1016E00001F0AAFC4FF4961450BB1A49174801F0B8
:1016F000A3FC184920BB154801F09EFC1549F8B918
:10170000124801F099FC1349D0B9104801F094FC3B
:101710001049A8B90D4801F08FFC0E4980B90B485B
:1017200001F08AFC0B4958B9084801F085FC0949C9
:1017300030B9064801F080FC10B9083CD5D1E4E688
:101740000248012101F04EFC012070BD005800400C
:10175000800007000400001070B50C4616460F21EB
:1017600000220546FFF794FE00283BD028460021C2
:101770001722FFF78DFE002834D0284601211722BA
:10178000FFF786FE70B3284602210022FFF780FE95
:1017900040B3284603210022FFF77AFE10B3284603
:1017A00004211222FFF774FEE0B100222846052131
:1017B000FFF76EFE002C14BF62224222D0B12846F1
:1017C0000621FFF765FE002C0CBF42220222B8B9A9
:1017D000E4B14AF644439E420CBF2022002218BBCB
:1017E000002070BD002C4FF0000014BF6222422286
:1017F0000028E4D1002C0CBF422202220028E7D0AE
:1018000028460721FFF744FE002CE2D1B6F5FA4F37
:1018100019D01ADD4AF64442964212D00E498E4241
:1018200018D11C220028DBD028460821FFF730FE03
:101830000028D5D0284609210022BDE87040FFF7D6
:1018400027BE2022CBE71822C9E7B6F5FA5F01D1FF
:101850000C22C4E70022C2E7007701002DE9F04F17
:101860003B4F3C4E044683B001214FF4001001F081
:10187000D1FD3846002101F085F9384601F0AEF877
:10188000354BA36100254FF480634FF6FE724FF491
:10189000006B4FF4005A4FF480794FF40038402128
:1018A000E362626221626561E561A5622564656447
:1018B000A564E564C4F830B0C4F834A0C4F8389026
:1018C000C4F83C80384604F114010093019201F001
:1018D0001DF92946304601F055F9304601F07EF8F1
:1018E0001E4F0199009AA5654FF0C060E56521661D
:1018F0006566A266C4F86CB0C4F870A0C4F87490B1
:10190000C4F87880E567C4F88050C4F88450C4F8FF
:1019100088502065676504F15001304601F0F6F803
:1019200030460F4E182101224FF4804401F034F963
:101930000C4834600221012201F078FA01210A46A4
:10194000094801F073FA012003B0BDE8F08F00BF31
:1019500070600240586002400C3800400C34004077
:1019600000E100E0003800400034004070B5134B47
:1019700004461546002245601860026121700E463B
:10198000FFF774FC08B9002070BD2046FFF7CAFCC1
:101990000028F8D0204631462A46FFF7F3FC0028FD
:1019A000F1D031462A462046FFF7D6FE0028EAD07D
:1019B0002046BDE87040FFF751BF00BF146900200A
:1019C000F8B50E461746092101220446FFF760FDCF
:1019D000054600283DD0602E53D82378002B3AD0FE
:1019E0002F482761818B4A0552D52E48828B53059B
:1019F0004AD5207804F18C0704F68C43E761A3658F
:101A000068B960684BF6803C604545D0264A9042F4
:101A100044D0B0F5FA4F0CBF0321012100E00121B1
:101A2000B70001FB07F363622366E1601F48A6600D
:101A300004F1140101F06AF804F150011C4801F0AE
:101A400065F81A48012101F09DF81948012101F0BB
:101A500099F82846F8BD17484FF4805101F056FC1C
:101A60000028F8D113484FF4805101F04FFC0028B2
:101A7000B6D110484FF4805101F048FC0028F1D055
:101A8000AEE700252846F8BD012101F095F9B0E741
:101A9000012101F091F9A8E70221C1E70421BFE784
:101AA00000380040003400400077010070600240C0
:101AB000586002400004024008B50548002101F0CA
:101AC00061F804480021BDE8084001F05BB800BFA0
:101AD0007060024058600240D0F810C02DE9F0411B
:101AE0000646BCF1000F00F00A818268C56805FB5C
:101AF00002F7780001FB00F101F2446306EB4308B2
:101B000006EB410404F18C0708F10400002D6FD0AE
:101B1000510001296CD96D0008F1020E0EEB820E06
:101B2000441908F10603C0EB0E01B4F80080A0F8D8
:101B3000028002397345C1F342012C4458D069B385
:101B4000012924D002291ED0032917D0042911D03D
:101B500005290AD0062904D0B4F8008023F8028FA2
:101B60002C44218823F8021F2C44B4F8008023F869
:101B7000028F2C44218823F8021F2C44B4F80080E3
:101B800023F8028F2C44218823F8021F2C44B4F838
:101B9000008023F8028F73452C4429D01946B4F8ED
:101BA000008021F8028F34F8058021F8028F04EBC1
:101BB000050834F815404C8038F815101981A844F0
:101BC00008EB050138F815405C8131F81580A3F861
:101BD0000C8029444C1931F81510D98134F815803E
:101BE000A3F81080103304EB450473452C44D5D181
:101BF0003946E047F268002A00F08380B06845006B
:101C000007EB80034FEA420E6E1E0EFB067706F1CD
:101C1000FF3C33F8024D3C806046CEEB07020CF0EF
:101C2000070100286FD0C9B3012930D0022927D07D
:101C300003291ED0042916D005290ED0062906D066
:101C400033F8025D15800CF1FF30CEEB020233F861
:101C5000026D16800138CEEB020233F8027D178048
:101C60000138CEEB020233F8024D14800138CEEB7E
:101C7000020233F8028DA2F800800138CEEB020296
:101C800033F802CDA2F800C00138CEEB020233F8DF
:101C9000021D11800138CEEB020236D01F46CEEB7A
:101CA000020537F8026D16803C46CEEB050834F885
:101CB000021D298034F802CCA8F800C0CEEB08023F
:101CC00033F8087C1780CEEB020533F80A6C2E80BF
:101CD000CEEB050433F80C8CA4F80080CEEB040C9A
:101CE00033F80E1CACF80010CEEB0C0233F8107C6D
:101CF00017800838CEEB0202A3F11003CED1BDE865
:101D0000F081BDE8F081BDE8F081BDE8F08100BF61
:101D100008B50F4B1A6812F0C05F0FD10C4B1A6850
:101D200012F0A05F00D108BD0A484FF0A0519960A1
:101D300000680021BDE80840FFF7CEBE05484FF01F
:101D4000C051996000680121FFF7C6FEE6E700BFB9
:101D5000006002401469002070B51C26044632461B
:101D60000021383001F054FD4FF400753246002157
:101D700004F1540001F04CFD2A46002104F17000EA
:101D800001F046FD2A4604F51C70002101F040FDDB
:101D90000020B4F88034A4F882342061A061A4F853
:101DA000700470BD2DE9F007174C54F82260B6F9A5
:101DB0000050B6F902A0B6F90490B6F90680B6F95B
:101DC0000A70B6F908C0B6F90C60C56100244FF47A
:101DD0000025C0F88C4CC0F820A0C0F8884CC0F892
:101DE0002490C0F8144DC0F828800763466345600E
:101DF000C0F8104DC0F82CC0A0F880344161BDE897
:101E0000F007FFF7A9BF00BFE43800082DE9F0078D
:101E1000B0F88094B0F8708409F1FF3708F580724B
:101E20000024012F1FFA82FC254610DD0123C3EB9D
:101E30000C065FFA86FA00EB4A020133B2F97060D1
:101E4000B2F970A29BB2BB4235445444EFDB002987
:101E500049D0C9EB0C011FFA81F909F1020700EB27
:101E600048065FFA87FC0CF13802B6F97070B6F9D3
:101E700070A230F912C009F1010684EAE471A1EB05
:101E8000E47185EAE579A9EBE5792F44A24408F1EC
:101E9000FF08CCEB07074944CCEB0A0AF2B25FFA21
:101EA00088F38AEAEA7CACEBEA7C87EAE778A8EB7D
:101EB000E77801EB810900EB420600EB43034FEAB0
:101EC0009901C4448C45B6F87090B6F87022B3F806
:101ED0007060B3F8703210D9B0F88264721C544646
:101EE0003D46A0F88224002DACBF02200020002C2B
:101EF000A8BF0130BDE8F007704705FA89F704FA7A
:101F000082FA36B21AB2C6EB0708C2EB0A0C88EAAC
:101F1000E879A9EBE8798CEAEC73A3EBEC734B441A
:101F20008B42E0D9B0F88244611E45466446A0F871
:101F30008214D8E710B417E0D0F8881C4268836890
:101F400000EB410C0133BCF8884483600FFA84FC39
:101F50000131ACEB2224C1F309012244B3F5805FC7
:101F6000C0F8881C42600BD2D0F88C2CD0F8883C8A
:101F7000D11AC1F30904002CDED15DF8044B70477F
:101F8000002401228460C46002705DF8044B704735
:101F900070B41CE0D0F8885C061D00EB450C96E898
:101FA0001600BCF888341EB2A6EB212C0132013594
:101FB0000CFB0CF3C5F30905614404EB2314B2F5E3
:101FC000805FC0F8885C4160C46082600AD2D0F84B
:101FD0008C2CD0F8883CD11AC1F30904002CD9D13B
:101FE00070BC70470021B4F5F03F8160C160EED352
:101FF00002260670F4E700BF2DE9F04F804683B05B
:102000000BE0BCF1050F00F05F81BCF1020F00F0A6
:102010004A81BCF1030F00F0FD80D8F88C2CD8F871
:10202000883CD01AC0F30901002900F05F81D8F87C
:102030001440D8F81010D8F8886C019421444FEA65
:10204000116B0BF1400208EB4604C44BD8F83C700E
:102050000097D0B2B4F8887433F9102033F91BB06C
:10206000D8F80430D8F820A0D8F85850D8F81C90E8
:10207000D8F824C038B2A0EB23270BFB07F054425A
:10208000031207FB04F20098C8F83830121205FB5F
:102090000AF409FB024B00FB0AF4D8F85C00C8F80C
:1020A000542009FB034A00FB0CB9D8F82840D8F8A3
:1020B000600000FB049BD8F84040D8F82C00D8F80A
:1020C000689004FB0CACD8F8644004FB00BBD8F863
:1020D0002800D8F8444004FB00CAD8F80400D8F817
:1020E00030C00136C6F309040744D8F82C60D8F88C
:1020F0004800C8F8047000FB06AAD8F83470D8F875
:102100006C60C8F8884C0CFB09BBD8F86440C8F870
:10211000684006FB07B6D8F84CB0C8F86C90D8F801
:102120005090C8F84C000BFB0CA409FB074A002E8A
:1021300098F800C0D8F84400C8F85820ACBF012275
:102140004FF0FF32BAF1000FC8F850B0C8F848009D
:10215000ACBF4FF0010B4FF0FF3BD8F81800C8F8A8
:102160003C30BCF1020FD8F86030D8F85C70B8F899
:102170007094C8F8643014BF02FB0AF2CAEB06027E
:1021800000EB400318BF0BFB1622D8F84040C8F8FC
:102190006070C8F85C501A44009D019FC8F8444024
:1021A000C8F8405008EB4904951001EBC5014FEA0F
:1021B0002A23361207EBE202C8F81010C8F81850AC
:1021C000C8F81420A4F87030A4F87062B8F882A49B
:1021D00009F101000AF1FF35C4B2A9B2A8F87044B0
:1021E000A8F8821400297FF414AFB8F880B4A8F8D6
:1021F00082B4BCF1030F7FF404AFD8F8144D08EBA0
:10220000040A04F1010B0BF07F0304268AF8906C9A
:10221000C8F8143DB8F87074B8F8805407F58071A8
:102220001FFA81F94FEA450C002D00F09480002040
:1022300003460646C0EB0902D0B208EB400A9D42B5
:10224000BAF97040BAF9707203F1010B94BF012121
:102250004FF0FF311FFA8BF394BF4FF0FF32012292
:1022600004FB0166634502FB07661846E2DBD8F80B
:102270007C44D8F87474B442B8BFC8F87C64002EAB
:10228000BCBF0024C8F87C44B74207DDD8F87814F6
:102290008F4203DDD8F87C349F423DD0C8F8787473
:1022A000C8F87464B9E64046FFF7B0FD48B9B8F81D
:1022B00084E40EF1010C1FFA8CF3202BA8F884346F
:1022C00017D098F800C0A4E601214046FFF79EFD14
:1022D000D8F8141D08EB01024D1C82F8900C05F093
:1022E0007F0098F800C0C8F8140D92E603B0BDE86E
:1022F000F08FA3F58467D8F8106DC8F87C044FF010
:102300000309A8F88404C8F8146D88F80090C8F888
:102310007874C8F874747DE7A9EB55095FFA89FCF5
:1023200008EB4C0ABAF97020002AB7DABAF9700241
:102330000028B3DDB8F884B40BF10104A1B204297C
:10234000A8F8841405F1FF3504BF052188F80010B2
:10235000A8F88254A2E7664689E700BF080000207B
:1023600000231022A0F8101180F80C210370A0F8AF
:102370000E31A0F80A31704790F80C3143FA01F29F
:10238000D30706D504290AD8DFE801F0294006342E
:102390001400032303707047022380F80C3190F877
:1023A0000D3133B90122A0F806314370A0F808318D
:1023B00002707047B0F80E11B0F810C14B1C9AB201
:1023C0009445A0F80E2102D8B0F80A1121BB4FF0B5
:1023D000160C102380F80CC180F80D31704790F86E
:1023E0000DC10CF1FF32D3B2082180F80D3180F815
:1023F0000C11D6E790F80D1101F1FF3C5FFA8CF358
:10240000012280F80D3180F80C21CAE70C2180F8F8
:102410000C1190F80D31C4E705220270704700BF1F
:102420002DE9F84F037804460A46A3B1012B0FD1DA
:10243000B0F80651B0F808016119471C4E78B8B2DF
:10244000324304284A70A4F808010AD094004C7062
:102450001846BDE8F88FFFF78FFF23781846BDE8D0
:10246000F88F05F101081FFA88F90025B9F5827F78
:10247000A4F80691A4F8085102D04C446570E7E72F
:10248000374A631C04F201154FF0FF309A4693F867
:1024900002901AF8011B93F803809AF800A093F8B1
:1024A00004C05F799E7980EA010B5FFA8BF10833F3
:1024B00052F821B013F8011C8BEA102080EA0A0AB6
:1024C0005FFA8AFBAB4252F82BA08AEA102080EA1E
:1024D00009095FFA89FB52F82BA08AEA102080EAEA
:1024E00008085FFA88F952F829B08BEA102A8AEABC
:1024F0000C00C0B252F820C08CEA1A2888EA0707FC
:10250000F8B252F8207087EA182989EA0606F0B274
:1025100052F8207087EA192686EA0101C8B252F8FB
:10252000207087EA1620B1D194F8025194F801B1D5
:1025300094F8043194F80361B4F80A21290441EABB
:102540000B6747EA03056FEA000A45EA0620504593
:1025500014BF04230223561C2370A4F80A6177E7F2
:1025600048390008F0B41549154E164B164A174C59
:10257000174D4FF0FF300427C1F88000C1F88400E8
:10258000C1F88001C1F884013760196841F0010683
:102590001E601068044014601F6827F0847C2CF4CF
:1025A000803119601E6826F48020186014680023AA
:1025B00024F4FE0717602B60F0BC704700E100E0D8
:1025C00010E000E000380240603A02400000FFF8EE
:1025D000C03C024008B54368026882F30888984707
:1025E00008BD00BF394A3A4BD2F88810394841F447
:1025F0007001C2F888101968002241F001011960C9
:102600009A60196821F0847C2CF48031196058603C
:10261000186882B020F480211960DA60009201927B
:102620001A6842F48030186003E0009AB2F5A04FB7
:102630000AD0274B196801F4003201920098431C1C
:10264000009301990029F0D02148036813F4003168
:1026500018BF01210191019A012A05D01B4B4FF0AF
:1026600000629A6002B07047194B1B4A186C1B49F4
:1026700040F080501864106840F4404010609A6840
:102680009A60986840F400429A60986840F4A052BA
:102690009A605960196841F0807018600C4B1A6894
:1026A0009201FBD50E4840F2056101609A6822F064
:1026B00003009860996841F002029A60044B9868A0
:1026C00000F00C010829F9D1C8E700BF00ED00E0D7
:1026D00000380240103000240070004008544007C9
:1026E000003C024008B54FF48070012100F0CAFEA2
:1026F0004FF480700021BDE8084000F0C3BE00BF69
:102700004268D1F80CC0144B2DE9F00122F0407260
:102710000C6891F804808E680F694D7922F48072FC
:10272000144344EA0822426084684CEA070704EA3A
:10273000030847EA060343EA080646EA45058560BA
:10274000097DC26A4C1EE7B222F4700343EA0756C1
:10275000C662BDE8F0017047FDF7FFC070B490E8B5
:102760004200084A8568C468074B5068314341EA13
:10277000050646EA040500EA030445EA0400506041
:1027800070BC704700230140E030FCFF836819B93A
:1027900023F001018160704743F0010282607047BD
:1027A000092970B421D9A1F10A0505EB450C0724CC
:1027B000C56804FA0CF603FA0CFC25EA060343EAA2
:1027C0000C04062AC4601FD90C2A2DD90D3A02EB3D
:1027D0008205C46A1F2606FA05FCA94024EA0C03F8
:1027E00041EA0302C26270BC704701EB4104072654
:1027F000056906FA04FC03FA04F425EA0C0343EA2B
:102800000406062A0661DFD8561E06EB860C446BCA
:102810001F2303FA0CF524EA050201FA0CF141EA40
:102820000206466370BC7047D51F05EB8506046B36
:102830004FF01F0C0CFA06F3B14024EA030241EA00
:102840000205056370BC7047836843F08041816076
:10285000704700BF836819B923F4807181607047A5
:1028600043F4807282607047836819B923F4007161
:102870008160704743F4007282607047044B1A69AC
:10288000002A03DA0349044859605860704700BFC2
:10289000003C024023016745AB89EFCD014BD86076
:1028A000704700BF003C02400E4BDA68D00309D4E9
:1028B000D868C10601D506207047D968CA0503D576
:1028C0000220704701207047DA6812F0E00F01D053
:1028D00007207047DB6813F0020F0CBF09200820A7
:1028E000704700BF003C024000B583B009238DF85B
:1028F0000730FFF7D9FF8DF807009DF80700012882
:10290000F7D09DF80710C8B203B05DF804FB00BF14
:1029100070B5054661B3012930D0022914BF4FF4C8
:1029200040764FF40076FFF7DFFF092825D1154CDC
:10293000236923F440702061216946EA0102226183
:10294000266926F0F8032361206940F002010D4357
:102950002561226942F480362661FFF7C5FF2369AD
:1029600023F002012161256925F0F802226170BD82
:102970000E46FFF7B9FF0928D9D070BD4FF4807615
:10298000F7E700BF003C024070B505460E46FFF772
:10299000ABFF092800D070BD0A4C236923F44070B6
:1029A0002061216941F400722261236943F0010032
:1029B00020612E60FFF798FF256925F0010626614A
:1029C00070BD00BF003C024021F0604121F07F0259
:1029D000014B10439860704700ED00E010B4374A97
:1029E0000468002324F00104212190420460036064
:1029F00043608360C360036141614DD0304CA042AD
:102A000035D03049884239D02F4B98423DD02F4C99
:102A1000A04247D02E49884248D02E4B98421DD024
:102A20002D4CA0421ED02D4B984243D02C4CA0429E
:102A30001DD02C49884221D02B4B984225D02B4CBD
:102A4000A0422FD02A49884230D02A4B984205D044
:102A5000294CA04206D05DF8044B7047274943F843
:102A6000941CF8E74FF03D5244F8AC2CF3E74FF4D8
:102A7000746144F8201C5DF8044B70474FF47412E5
:102A800041F8382C5DF8044B70474FF0746443F8FC
:102A9000504C5DF8044B7047194B5DF8044B3D20DA
:102AA00098607047174844F8640CD4E7164B41F817
:102AB0007C3CD0E73D2043F8080CCCE71060024096
:102AC000286002404060024058600240706002404E
:102AD00088600240A0600240B8600240106402407A
:102AE000286402404064024058640240706402401E
:102AF00088640240A0640240B864024000003D20A7
:102B0000006002403D000020400F00200B68CA68B2
:102B1000D0F800C02DE9F0074F698E69CD690C6AC5
:102B2000D1F83490D1F838801A4342EA070A4AEAC9
:102B3000060747EA050646EA04054C6A8B6A104E0A
:102B40004F6845EA040242EA030A4AEA090242EAF5
:102B500008020CEA060942EA09060B6BCC6A0D6909
:102B600089680660426943EA040822F0070348EADC
:102B70000304446145608760C160BDE8F0077047A9
:102B80003F801CF0036819B923F001010160704710
:102B900043F00102026070470B060DD54369B2B1E4
:102BA00043F080038029436110D0026801F01E0CBD
:102BB0004CEA020101607047802907D0002AF4D155
:102BC000036801F01E0123EA01020260704723F04E
:102BD000800280294261F3D1704700BF08B52D4BB8
:102BE00098421BD02C49884224D02C4A90422DD0A8
:102BF0002B4B984236D02B4988423FD02A4A9042EC
:102C000000D008BD4FF40010012100F03BFC4FF450
:102C100000100021BDE8084000F034BC4FF48050A3
:102C2000012100F02FFC4FF480500021BDE8084046
:102C300000F028BC4FF48040012100F015FC4FF457
:102C400080400021BDE8084000F00EBC4FF4004079
:102C5000012100F009FC4FF400400021BDE80840CC
:102C600000F002BC4FF40050012100F00BFC4FF4C7
:102C700000500021BDE8084000F004BC4FF4801073
:102C8000012100F0FFFB4FF480100021BDE8084057
:102C900000F0F8BB0030014000380040003C00402C
:102CA000003401400050014000540140838B8A6889
:102CB0002DE9F00323F47B6424F00F052E04022396
:102CC000370C87830384848B9A421FFA84FC5CD080
:102CD000354F8C88BD68002C0CBF4FF001084FF0B9
:102CE00002082E024CD4304DD5F88460D5F884907B
:102CF0006F686D68C9F3027307F03F096F024CBF3C
:102D00002A4F2B4FC6F38816B7FBF9F506FB05F6DD
:102D1000B6FBF3F7CB88B3F5007F39D04FEA4818FC
:102D2000B7FBF8F909EB89056E00B6FBF2F2571D07
:102D3000BEB2204DA5FB06674FEAD7084FEA5809F7
:102D4000A9F10206B5B208F00102FD2D94BF49EACF
:102D5000022202220F88B1F802808E894CEA070114
:102D600041F4006545EA08073E4342EA030CB2B26B
:102D700014431FFA8CF303848483BDE8F003704787
:102D8000BE6826F40003BB60ADE78C88CB88E1E722
:102D90004FEA172808EB88056F00B7FBF2F909F135
:102DA000050296B2C5E700BF0038024000127A0063
:102DB0000024F400CDCCCCCC838B39B923F48061D2
:102DC0000A044FEA124CA0F81CC070479BB243F4AF
:102DD00080618183704700BF838B30B423F47B64B0
:102DE00024F00F054FEA054C4FEA1C43022283836F
:102DF0000284B0F81CC04D880A888C8889891FFA23
:102E00008CF31D4345F4006C22F400724CEA040478
:102E100095B22143002D8BB214BF4FF0000C4FF43C
:102E2000807C43EA0C02828330BC704783881FFA9F
:102E300083FC1AB92CEA01018180704741EA0C0237
:102E40008280704708B5174B984212D016498842C5
:102E50001BD0164A904200D008BD4FF4000001215B
:102E600000F002FB4FF400000021BDE8084000F034
:102E7000FBBA4FF40010012100F0F6FA4FF40010F5
:102E80000021BDE8084000F0EFBA4FF480000121B6
:102E900000F0EAFA4FF480000021BDE8084000F09D
:102EA000E3BA00BF0054004000580040005C0040FE
:102EB000F0B5044685B06846A6880D4600F05AFA7B
:102EC000029935482A68DFF8D8C026F03F07A0FBF2
:102ED0000130800C3B041E0C87B247EA0603A38036
:102EE000268826F001031E04330C6245238029D86E
:102EF0005300B1FBF3FC1FFA8CF2032A07F1010126
:102F000098BF04222184A2832788A888B5F80AE004
:102F10002E89AD89BAB242F001032380218821F4C1
:102F2000816727F002024FEA024C4FEA1C434EEA47
:102F3000000E2E4343EA0E0085B2B1B225802181F6
:102F400005B0F0BDEF884BF6FF76B7421CD002EB20
:102F5000820E0EEB8E02B1FBF2F18BB243F4804C89
:102F6000CCF30B020AB94CF0010C4FF496710B4BE9
:102F700001FB00F083FB00274FEA971E0EF10106CC
:102F80004CF400422684BEE702EB4207B1FBF7F6A1
:102F90001FFA86FCE4E700BF83DE1B43D34D6210BB
:102FA000A0860100038839B923F001010A044FEA21
:102FB000124CA0F800C070479BB243F001010180A1
:102FC000704700BF038839B923F480710A044FEABF
:102FD000124CA0F800C070479BB243F4807101808E
:102FE000704700BF038839B923F400710A044FEA1F
:102FF000124CA0F800C070479BB243F400710180EE
:10300000704700BF1AB901F0FE010182704741F01C
:1030100001010182704700BF01827047828A038BE1
:1030200090B240EA034221F07F4C0CEA0203C91A35
:1030300048424841704700BF82B000230A0F009306
:10304000019301900092009821F07F4158B10198BE
:1030500000F114030193019A106801420CBF002093
:10306000012002B07047019B03F11802090C019284
:10307000F1E700BF00222DE9F00713460C6823E0BA
:103080000133012707FA03FC0CEA040AE24502F1C6
:10309000020200F0A18001275E1C07FA06FA0AEA84
:1030A0000407574502F1020C6ED001279E1C07FA57
:1030B00006F909EA04074F4502F1040C33D0033343
:1030C000102B02F106025CD0012505FA03F707EA8E
:1030D0000406BE42D4D14FF00308D0F800C091F8E6
:1030E00004A008FA02F96FEA090505EA0C08C0F81D
:1030F0000080D0F800900AF1FF370AFA02FCFFB214
:103100004CEA090A012FC0F800A040F28B80C66883
:1031100091F807903540C560C76809FA02F646EA9B
:103120000705C560ACE74FF00308D0F8009008FA37
:103130000CFA6FEA0A0505EA090A91F80480C0F85A
:1031400000A0D0F8009008FA0CFA08F1FF384AEA1B
:1031500009095FFA88FABAF1010FC0F8009040F24D
:10316000B580C66891F807A03540C560C7680AFAFF
:103170000CF6033346EA0705102BC56002F1060280
:10318000A2D1BDE8F00770474FF00308D0F80090D7
:1031900008FA0CF5ED4305EA090A91F80480C0F835
:1031A00000A0D0F8009008FA0CFA08F1FF384AEABB
:1031B00009095FFA88FABAF1010FC0F8009065D9E1
:1031C000C66891F807A03540C560C7680AFA0CF6D2
:1031D00046EA0705C56068E70326D0F800900F7936
:1031E00006FA02F86FEA080505EA090CC0F800C003
:1031F000D0F8009007F1FF3807FA02F65FFA88F777
:1032000046EA090C012FC0F800C025D9C66891F81C
:1032100007903540C560C76809FA02F646EA070517
:10322000C56038E7876891F8058091F806902F40CF
:103230008760876808FA02FC4CEA070787604768DE
:1032400027EA06064660476809FA03FA1FFA8AF871
:1032500048EA070646605AE7866891F8059091F8B3
:1032600006C005EA06078760866809FA02F73E434A
:103270008660476827EA0A06466047680CFA03FA40
:103280001FFA8AF848EA07064660BFE7D0F808A0A8
:1032900091F8068091F8059005EA0A0AC0F808A09E
:1032A000D0F808A009FA0CF949EA0A0AC0F808A0FF
:1032B000D0F8049029EA07074760476808FA06F63D
:1032C0001FFA86F848EA0707476079E7D0F808A0B0
:1032D00091F8068091F8059005EA0A0AC0F808A05E
:1032E000D0F808A009FA0CF949EA0A0AC0F808A0BF
:1032F000D0F8049029EA07074760476808FA06F6FD
:103300001FFA86F848EA070747602AE70369194267
:103310000CBF0020012070470AB941837047018328
:10332000704700BFCB0800EB830001F0070110B429
:103330004FEA810C046A0F2303FA0CF124EA01031B
:103340000362046A02FA0CF242EA040101625DF8C7
:10335000044B70470907034B41EA8010C3F884000F
:10336000704700BF00380240014B1860704700BF33
:1033700068004742204A936803F00C01042910B406
:103380001DD008291ED01D4B03601B491C4A8C68A8
:10339000C4F3031C12F80C40E34043608C68C4F390
:1033A000822C12F80C4023FA04F484608968C1F37B
:1033B0004234125D5DF8044BD340C3607047114B3B
:1033C0000360E2E754685168526863024CBF0D4BDA
:1033D0000A4BC2F38814084A01F03F0CB3FBFCF11E
:1033E000536801FB04FCC3F30144611C4A00BCFBAD
:1033F000F2F30360C9E700BF003802400024F40084
:103400000C02002000127A00014B1860704700BFC8
:103410005C014742054B1A6B19B922EA0000186398
:10342000704740EA02011963704700BF003802404C
:10343000054B1A6C19B922EA00001864704740EA7B
:1034400002011964704700BF00380240054B5A6CF6
:1034500019B922EA00005864704740EA0201596431
:10346000704700BF00380240054B1A6A19B922EABA
:1034700000001862704740EA02011962704700BFFD
:1034800000380240054B5A6A19B922EA0000586216
:10349000704740EA02015962704700BF003802409D
:1034A0004309012B0BD00A49022B0CBF096F496F4E
:1034B00000F01F0021FA00F303F001007047044AF6
:1034C000116800F01F0021FA00F303F001007047BB
:1034D00000380240244A0388904270B49BB212D054
:1034E00002F58064A0420ED0B0F1804F0BD0A4F55D
:1034F0008035A84207D005F58066B04203D006F5B6
:10350000806C604503D14A8823F070031343174C45
:10351000A0421FD004F58065A8421BD00E890C88FC
:1035200023F4407C05F56C421FFA8CF34D681E4372
:1035300090420680C562048506D00D4A904203D0B1
:103540000125858270BC7047897A018601258582B4
:1035500070BC704703800E884968C16201250685EA
:10356000858270BC704700BF000001400010004021
:103570000004014000234FF0FF32426003800381CA
:1035800043808372704700BF038839B923F08001FC
:103590000A044FEA124CA0F800C070479BB243F0F7
:1035A00080010180704700BF038839B923F0010111
:1035B0000A044FEA124CA0F800C070479BB243F0D7
:1035C00001010180704700BFF0B4048C8F89B1F80D
:1035D00002C00E881C4D24F0010213041C0C04844C
:1035E000028C8488038B22F0020223F073034CEADE
:1035F000070C1B0412041FFA8CF7120C4FEA134C31
:10360000A84247EA0202A4B24CEA06030AD005F532
:103610008066B04206D0896884800383F0BC416331
:10362000028470470D8AB1F80EC04F8A8E8822F04E
:10363000080242EA0C0C2F4324F440742CF00402DC
:10364000BDB232432C43E6E700000140F0B4048CE5
:10365000B1F80CC04F880E881F4D24F010021304DF
:103660001C0C0484028C8488038B22F02002120438
:1036700023F4E643120C1B0442EA0C1C1B0C4CEA1C
:10368000071743EA0626A842BAB2A4B2B3B20AD0D8
:1036900005F58065A84206D0896884800383F0BC64
:1036A000816302847047CD89B1F810C08F884E8A3B
:1036B00022F0800292B224F4406442EA05124FF6EE
:1036C000BF752A4044EA8C0C42EA07174CEA86068A
:1036D000BAB2B4B2E0E700BF00000140F0B4048C1D
:1036E000B1F80CC04F880E881F4D24F4807213046B
:1036F0001C0C0484028C8488838B22F400721204D4
:10370000120C23F0730342EA0C2C1B044CEA07272B
:10371000A8424FEA134CBAB2A4B24CEA06030AD04C
:1037200005F58066B04206D0896884808383F0BC4A
:10373000C16302847047CD89B1F810C08F884E8A6A
:1037400022F4006292B224F4405442EA05224FF679
:10375000FF352A4044EA0C1C42EA07274CEA0616C9
:10376000BAB2B4B2E0E700BF00000140002303801A
:103770004380838083608381C38103824382704757
:10378000038B23F008024FEA024C4FEA1C43194313
:1037900001837047038B23F400624FEA024C4FEA27
:1037A0001C4343EA01218AB202837047838B23F0D2
:1037B00008024FEA024C4FEA1C43194381837047C9
:1037C000002100F004B80C4B5B58435004310B4807
:1037D0000B4B42189A42FFF4F6AF0A4A00F003B8C6
:1037E000002342F8043B084B9A42FFF4F9AFFEF77E
:1037F000F9FEFDF761FA7047603D00080000002007
:10380000200200202002002020690020FFF7FEBFD8
:10381000F0B4840743D0541E002A3ED0CDB20346F4
:1038200003E0621E002C38D0144603F8015B9A07AF
:10383000F7D1032C2AD9CDB245EA05250F2C45EA4C
:10384000054515D9A4F110073F0903F1100606EB51
:1038500007161A46156055609560D5601032B24261
:10386000F8D104F00F040137032C03EB07130DD933
:103870001E462246043A032A46F8045BFAD8221F61
:1038800022F003020432134404F003042CB1C9B241
:103890001C4403F8011BA342FBD1F0BC7047144643
:1038A0000346C6E7ECFF2800C9FF4000FF004000C8
:1038B000C9FF2800EBFFCDFF7B00FF007B00CDFFA1
:1038C000EBFF0000BAFF1900B400FF00B4001900BC
:1038D000BAFF0000DDFF5500CD00FF00CD00550010
:1038E000DDFF0000000000000000000000000000FC
:1038F000A4380008B438000800000000C4380008EC
:1039000000000000D43800080000000000000000A3
:10391000000000002839000800000000000000003E
:1039200000000000383900082D009500E300FF007A
:10393000E30095002D00000000006200B400EC00E0
:10394000FF00EC00B4006200000000009630077732
:103950002C610EEEBA51099919C46D078FF46A7083
:1039600035A563E9A395649E3288DB0EA4B8DC79A3
:103970001EE9D5E088D9D2972B4CB609BD7CB17E23
:10398000072DB8E7911DBF906410B71DF220B06AF3
:103990004871B9F3DE41BE847DD4DA1AEBE4DD6D03
:1039A00051B5D4F4C785D38356986C13C0A86B6403
:1039B0007AF962FDECC9658A4F5C0114D96C066323
:1039C000633D0FFAF50D088DC8206E3B5E10694C03
:1039D000E44160D5727167A2D1E4033C47D4044B43
:1039E000FD850DD26BB50AA5FAA8B5356C98B24223
:1039F000D6C9BBDB40F9BCACE36CD832755CDF45A3
:103A0000CF0DD6DC593DD1ABAC30D9263A00DE51D2
:103A10008051D7C81661D0BFB5F4B42123C4B356C2
:103A20009995BACF0FA5BDB89EB802280888055F42
:103A3000B2D90CC624E90BB1877C6F2F114C6858A2
:103A4000AB1D61C13D2D66B69041DC760671DB0190
:103A5000BC20D2982A10D5EF8985B1711FB5B60662
:103A6000A5E4BF9F33D4B8E8A2C9077834F9000FA2
:103A70008EA8099618980EE1BB0D6A7F2D3D6D0842
:103A8000976C6491015C63E6F4516B6B62616C1C32
:103A9000D83065854E0062F2ED95066C7BA5011B62
:103AA000C1F4088257C40FF5C6D9B06550E9B71202
:103AB000EAB8BE8B7C88B9FCDF1DDD62492DDA15C2
:103AC000F37CD38C654CD4FB5861B24DCE51B53AE2
:103AD0007400BCA3E230BBD441A5DF4AD795D83DE2
:103AE0006DC4D1A4FBF4D6D36AE96943FCD96E3422
:103AF000468867ADD0B860DA732D0444E51D033302
:103B00005F4C0AAAC97C0DDD3C710550AA41022711
:103B100010100BBE86200CC925B56857B3856F20E1
:103B200009D466B99FE461CE0EF9DE5E98C9D92941
:103B30002298D0B0B4A8D7C7173DB359810DB42E81
:103B40003B5CBDB7AD6CBAC02083B8EDB6B3BF9ACD
:103B50000CE2B6039AD2B1743947D5EAAF77D29D59
:103B60001526DB048316DC73120B63E3843B649439
:103B70003E6A6D0DA85A6A7A0BCF0EE49DFF099339
:103B800027AE000AB19E077D44930FF0D2A30887A9
:103B900068F2011EFEC206695D5762F7CB67658059
:103BA00071366C19E7066B6E761BD4FEE02BD38959
:103BB0005A7ADA10CC4ADD676FDFB9F9F9EFBE8EB9
:103BC00043BEB717D58EB060E8A3D6D67E93D1A1F9
:103BD000C4C2D83852F2DF4FF167BBD16757BCA6D9
:103BE000DD06B53F4B36B248DA2B0DD84C1B0AAF79
:103BF000F64A0336607A0441C3EF60DF55DF67A8F9
:103C0000EF8E6E3179BE69468CB361CB1A8366BC88
:103C1000A0D26F2536E2685295770CCC03470BBBD8
:103C2000B91602222F260555BE3BBAC5280BBDB2D8
:103C3000925AB42B046AB35CA7FFD7C231CFD0B578
:103C40008B9ED92C1DAEDE5BB0C2649B26F263EC6A
:103C50009CA36A750A936D02A906099C3F360EEB78
:103C60008567077213570005824ABF95147AB8E238
:103C7000AE2BB17B381BB60C9B8ED2920DBED5E518
:103C8000B7EFDC7C21DFDB0BD4D2D38642E2D4F168
:103C9000F8B3DD686E83DA1FCD16BE815B26B9F6F8
:103CA000E177B06F7747B718E65A0888706A0FFF58
:103CB000CA3B06665C0B0111FF9E658F69AE62F818
:103CC000D3FF6B6145CF6C1678E20AA0EED20DD718
:103CD0005483044EC2B30339612667A7F71660D038
:103CE0004D476949DB776E3E4A6AD1AEDC5AD6D978
:103CF000660BDF40F03BD83753AEBCA9C59EBBDE98
:103D00007FCFB247E9FFB5301CF2BDBD8AC2BACA47
:103D10003093B353A6A3B4240536D0BA9306D7CDB7
:103D20002957DE54BF67D9232E7A66B3B84A61C4D7
:103D3000021B685D942B6F2A37BE0BB4A18E0CC397
:103D40001BDF055A8DEF022DF8B500BFF8BC08BC8B
:103D50009E467047F8B500BFF8BC08BC9E46704749
:103D600000100000401F00000000320064009600B8
:103D7000C800FA002C015E018F01C001F10122028E
:103D800052028202B102E1020F033D036B0398036A
:103D9000C503F1031C04470471049B04C304EB0432
:103DA000130539055F058405A805CB05ED050E064D
:103DB0002F064E066C068A06A606C206DC06F50627
:103DC0000E0725073B075007640776078807980703
:103DD000A707B507C207CE07D807E107E907F0072D
:103DE000F607FA07FD07FF070008FF07FD07FA07B8
:103DF000F607F007E907E107D807CE07C207B507BE
:103E0000A707980788077607640750073B07250729
:103E10000E07F506DC06C206A6068A066C064E06E6
:103E20002F060E06ED05CB05A80584055F053905AF
:103E30001305EB04C3049B04710447041C04F10341
:103E4000C50398036B033D030F03E102B102820235
:103E500052022202F101C0018F015E012C01FA0021
:103E6000C8009600640032000000CEFF9CFF6AFF8D
:103E700038FF06FFD4FEA2FE71FE40FE0FFEDEFDFF
:103E8000AEFD7EFD4FFD1FFDF1FCC3FC95FC68FC03
:103E90003BFC0FFCE4FBB9FB8FFB65FB3DFB15FB1B
:103EA000EDFAC7FAA1FA7CFA58FA35FA13FAF2F9E0
:103EB000D1F9B2F994F976F95AF93EF924F90BF9E6
:103EC000F2F8DBF8C5F8B0F89CF88AF878F868F8EA
:103ED00059F84BF83EF832F828F81FF817F810F8A0
:103EE0000AF806F803F801F800F801F803F806F8F4
:103EF0000AF810F817F81FF828F832F83EF84BF8CF
:103F000059F868F878F88AF89CF8B0F8C5F8DBF842
:103F1000F2F80BF924F93EF95AF976F994F9B2F965
:103F2000D1F9F2F913FA35FA58FA7CFAA1FAC7FA7C
:103F3000EDFA15FB3DFB65FB8FFBB9FBE4FB0FFCCA
:103F40003BFC68FC95FCC3FCF1FC1FFD4FFD7EFDB6
:103F5000AEFDDEFD0FFE40FE71FEA2FED4FE06FFAA
:103F600038FF6AFF9CFFCEFF000000000000000049
:103F7000010203040102030406070809000000000F
:04000005080037C1F7
:00000001FF
